:02000004C0D06A
:1000000010B5044662B604F083F9002C0DD001202F
:1000100000022168814205D1606801280AD1A068E8
:10002000002803D104F062F802E0002004F07EF81A
:10003000002010BD204604F001F90000F0B582B0A8
:1000400007460192921E0024012A23DB254E7E449E
:1000500000973B460F5DBF08F75D1F700F197D7855
:100060002D09085D8007800E4019305C5870B87803
:1000700080097D782D07AD0E2818305C9870B8780F
:100080003F250540705DD8701B1DE41C9442E1DBE8
:10009000009F00E03B46019A94421DDA085D80080B
:1000A000114D7D44285C1870085D8007860E501E37
:1000B000844203D1A85D58703D2109E008194178B8
:1000C00009093143695C597040780007800E295C4A
:1000D0003D20D87099701B1D00201870581CC01B43
:1000E00002B0F0BD12AB0000BEAA0000F0B589B0AE
:1000F00008AC55202070079401206946886007A845
:10010000486000260E607248784440219F233246A2
:1001100004F064F9002800D1D2E02078012800D052
:10012000CEE00AF035F930460AF0A2F9D021654D4B
:100130006848784403916850C4270323EB55C022D4
:10014000654979440492A950CC2106916E505E48CD
:1001500046600370044606F09FFC0420059006F0FC
:1001600023FD606004F06CFB04F06CFBBE242E5396
:10017000059806F019FD54494860002832D09728A8
:1001800030D00498285800282CD0285BE95D80B234
:10019000884227D206F0D4FC002823D106F046FC82
:1001A000AA2803D106F06CFCAA281BD10498285871
:1001B000295B4901401806996958002902D08847EF
:1001C000002808D0012804D104982858295B490147
:1001D000401803F0ADFD285B401C28530499695872
:1001E0000029D3D1EE5D285B0590384848210022D4
:1001F00006F0B2FC04F0C4FA0598B0423CD2049E6A
:10020000A859002829D0285BE95D80B2884224D211
:1002100006F096FC002820D106F008FCAA2803D19D
:1002200006F02EFCAA2818D1A859295B49014018CC
:1002300006996958002902D08847002807D001286C
:1002400003D1A859295B4901401803F071FD285BCF
:10025000401C2853A9590029D6D1E85D05903E4697
:100260002F5B48210022194806F076FC04F088FA3A
:10027000059887423746C2D304F09CF9134C4821B5
:100280000022204606F068FC04F094F9039E482101
:100290000022204606F060FC04F072FA06F050FCE2
:1002A000002802D0A8590028F1D10AF08DF804F0F6
:1002B000C7FA04F0C7FA05484821002206F04CFCB2
:1002C00009B0F0BD001A0020481B0020001B0020D0
:1002D000F4D60000A701000076AA000004490840F7
:1002E000884203D1D020034900220A5000207047E1
:1002F00003000080001A00200C48784405F01CFA26
:10030000017809480022C2708270012242700029DF
:1003100000D10A460E3202700198042101600920C2
:10032000000304F02FF8C046091F0020C2D40000CB
:10033000F0B5A1B017460E46044615784648007839
:10034000002801D103F082FA681EC0B20A2872D2D6
:10035000022C6BD20394012E68D8781C2799019146
:10036000269904910FA92A46C37884782402E318B9
:10037000447807783F023C1924041B1908C1001D6A
:10038000521EF1D1701E414241419524334E3155E8
:1003900004F0E8FC305D002801D030467530694635
:1003A000086021240FA919AF20462A463B4606F0D3
:1003B00049FB2022029205AE20463946334606F01C
:1003C000ADFA04F0CFFC01232046244D29463246E5
:1003D00006F0B4FA282130460AF05EF93846029950
:1003E0000AF05AF904F0BEFC1D4803682C464C3450
:1003F0001C4A2846214602F057F80398002822D0CC
:100400006846046018482B21184A7A44282304F0CF
:10041000BFFF174979440020024609F0FDFB049A0A
:10042000106810210143116021B0F0BDD520C0013A
:10043000803003F0A7FF0F48784404F0FFFDD5207B
:10044000C00103F09FFF02F067FE019908600920D8
:10045000000303F097FFC0469C18002004180020FA
:10046000E01B0020601D0020CA1C00201CA800000A
:1004700024C40000E0A70000A4B01C461646902546
:100480004049485D012787434F55404878443946E5
:1004900004F0D4FD002C71D033780B2B6ED21946AA
:1004A0001C31601E80B2814268D8581C0590721CB5
:1004B00004921CA8069020200790104608930391F0
:1004C000069A079B06F0D8F9212078432D490F188A
:1004D0000697603738460499089A0AF0D1F80898C8
:1004E00007993954002005997854711806984C30B2
:1004F00014220AF0C5F808983718387E6C21069A3D
:10050000505421480068406900280CD00399715C60
:10051000FA7E12025118BA7E7B7E1B029A181204D0
:100520008918884226D121201A497944412209AEEE
:10053000334606F0E3F91D3C0898201A80B269465C
:100540001D37079A84C10860012403221CAB304682
:10055000214606F01BFA002802D10F4878440BE030
:1005600008480146405D08188E21445409200003C4
:1005700003F008FF0648784404F060FDD520C00170
:1005800003F000FF04180020E01B0020A1A70000DA
:10059000DAA6000057A700000CA70000F0B591B044
:1005A0001D4614460F460646802800D1A0E0002EC6
:1005B00000D0F8E0002D00D1EDE085490878002852
:1005C00002D003F043F98249022008702078814A62
:1005D00010700690401EC0B20A2800D3F4E06B1ED3
:1005E00098B2002104280496039701D30F4600E037
:1005F0000127151D641D0320C0430890F80700D093
:10060000C9E00898201807931B1F9AB20592264646
:10061000042A01D3002700E00127C278847824024D
:10062000A21844780078000200190004101801C5CF
:100630003446341D491C06988142DFD305980328AF
:1006400000D8A8E0089BE018C178827812025118FF
:100650004078E25C12021018000408185D4FF8643C
:10066000012631025C4D284606F016F90021684645
:10067000016041605D4A7A441A232846069106F0DB
:10068000DBF8FD6C37460A210E467E43304609F002
:1006900049FFAE4201D8B842F4D0002F069B17D0D4
:1006A000089500250898394609F03CFF0A2631468E
:1006B00009F0BEFF30200843E9B209AA5054384679
:1006C000314609F02FFF6D1C092F0746EAD8EBB21F
:1006D000079D083D09AA0699D1546846016041600A
:1006E0003D4806F0A9F83D4806F0BAF8049E039F7D
:1006F000002F58D1802E03D135480078022856D1DA
:10070000ADB2344FF86CA84249D300266846066063
:1007100046603148314622462B4606F08DF8684641
:10072000066046602D48314622462B4606F084F886
:10073000F86C401BF86443D1169808902025684651
:100740002C37076045602448012700263946224699
:10075000334606F071F868464560224609AC0460ED
:100760001E483946334606F067F8684604601C4860
:100770006421204A7A442B4604F00AFE1E4979443B
:100780003046324609F048FA089A106810210143B1
:10079000116011B0F0BD1348784404F04FFCD5202F
:1007A000C00103F0EFFD6B20000203F0EBFD1048E9
:1007B000784404F043FCD520C001FB3803F0E2FD8F
:1007C0000920000303F0DEFD07487844E5E7C04652
:1007D0000018002004180020601D0020DC180020F4
:1007E000CA1C00202AA500004EA4000075A6000027
:1007F00020A5000093A600008AC10000F0B583B0D8
:100800000843002854D11E4614462D48007800287D
:1008100001D003F01BF8002E42D02078294A107036
:100820000290411EC9B20A2947D208980190121DB0
:100830002134731E1F21C94300269FB2032F2FD9D5
:100840006718FD78B878000240197D783F783F023C
:100850007D192D04401901C2241D761C1B1F02980E
:100860008642EAD398B23F281AD96118154D284616
:100870002C302026324609F003FF4C35284621460D
:10088000324609F0FDFE124979440020024609F083
:10089000C3F9019A106810210143116003B0F0BD43
:1008A0000948784404F0CAFBD520C00103F06AFD72
:1008B000D520C001803003F065FD04487844F1E79D
:1008C000001800200418002020A400005CA30000F1
:1008D00064C10000F0B583B01D4614460F460646BD
:1008E0004F487844194604F0A9FB802E3BD0002ED7
:1008F0006DD10197002D62D0414F3878002801D08A
:1009000002F0A4FF02960120387020783D4908705B
:10091000421ED2B20A2A6FD2091D6D1E641C00222B
:10092000ABB2032B4BD9E378A7783F02FB1867786B
:1009300026783602F61936049B1908C1241D521C6C
:100940002D1F8242ECD33048002181772F4801705F
:10095000684601602E482F492F4A344B7B4401F0F2
:10096000E1F9029E019F002F31D1802E03D124484E
:10097000007801282FD12648007800282ED027485B
:100980000068007E801F43424341AAB220482146AE
:1009900001F084FA012806DC0AD0002829D10920B8
:1009A000000303F0EFFC022821D1002002F0AAFD91
:1009B0000898016810220A43026003B0F0BD19488C
:1009C000784404F03BFBD520C00103F0DBFC6B2036
:1009D000000203F0D7FC1648784401E0154878443B
:1009E00004F02CFBD520C001FB3803F0CBFC03281E
:1009F000E9D011487844E4E70B487844E1E7C04681
:100A00000018002004180020E41B0020081F00200C
:100A1000A0180020601D0020DC180020E01B002032
:100A200024A4000002A300001EA20000352800003C
:100A3000F8A200003CA300003EA30000F0B5A1B066
:100A400016460C460746157802F000FF681EC0B235
:100A50000A285CD2022F55D2002C53D10397701C68
:100A600027990191269904910FA92A46C378847881
:100A70002402E318447806783602341924041B193A
:100A800008C1001D521EF1D104F06CF90FA819AE77
:100A90002946324604F0DEFE2E272022029205ACC3
:100AA00038463146234605F039FF04F05BF9204D06
:100AB000012338462946224605F040FF28212046DA
:100AC00009F0EAFD3046029909F0E6FD04F04AF922
:100AD0000398002823D0093568460560154864212D
:100AE000154A7A44202304F053FC14497944002029
:100AF000024609F091F8049A106810210143116030
:100B000021B0F0BDD520C001803003F03BFC0C4883
:100B1000784404F093FAD520C00103F033FC02F0CE
:100B200087FE019908600920000303F02BFCC046F2
:100B300004180020CA1C00206AA2000068C200003D
:100B400008A1000082B01E461546044631480078D0
:100B5000002801D002F07AFE601E05284CD25420F5
:100B6000B0424DD1002C019408D10020295C00290D
:100B700004D1401C1328F9D9022620E0012CFBD017
:100B80004120C7430026244CA0198E21405C002838
:100B900007D0E0198E301422294609F081FD002883
:100BA0000DD02137761C022EEED3002F07D11D4821
:100BB000784404F043FAD520C00103F0E3FB174C5E
:100BC0002046A43029461431202209F059FD019F06
:100BD000002F06D02046C43034352022294609F0A3
:100BE0004FFDE5202754E42026540D4801210170D3
:100BF0000920000303F0C6FB002C05D13420AFE729
:100C00006720000203F0BEFBD520C001803003F056
:100C1000B9FBC0460018002004180020E41B002087
:100C20009D180020A3A10000F0B5C1B01193144697
:100C30000F4606461578D6480078002801D002F005
:100C400005FE681EC0B20A2800D302E30123032E6A
:100C50000CDC012E20D00022022E0E920CD0032E8E
:100C600000D0F1E2149721220E9318E0301F0228E1
:100C700000D3E9E221220E93052E01D06D2000E081
:100C8000A120A900401880181199884200D0E5E2FF
:100C90000020012113900EE0149700220E925000C4
:100CA000A900081889300021119FB8421393084603
:100CB000149F00D0D2E21093089009910F961292DF
:100CC000002F00D0C0E246980C90B24805701495F1
:100CD000051D611C0120002706462018C278837874
:100CE0001B029A18407809780902081800041218A3
:100CF00004C5A9487844394604F0A0F9361DF0B27D
:100D000021187F1C149ABA42E7D1119A121A204670
:100D100009F0B6FC0F9B581F4142414180209F4A79
:100D20000D901154052B1FD11298271839466C319C
:100D30009A4EA13620221192304609F0A1FC8C3740
:100D4000964DC135142228463946174609F098FCBD
:100D5000934878441199324604F070F991487844E8
:100D600039462A4604F06AF90E9FE6190020129DC2
:100D7000109B315C00290AD1401C1328F9D9002F9F
:100D80000DD02178012900D073E2002307E030461E
:100D900002F0F2FD002800D164E201237B401096AE
:100DA000139800281BD0E819201834306119CE1987
:100DB00034360021425C002A0BD1491C1329F9D991
:100DC000002B0CD15520215C012908D076487844AD
:100DD00051E2304602F0D0FD002800D142E203F09B
:100DE000C1FF0021002F0A4600D0227868464160EA
:100DF0006A4E8660002F01D1394601E02146353127
:100E0000016010990B46143368480B9304F0F2FE0E
:100E100013980028119413D06019C61903F0A2FF8B
:100E20000020002F024601D05521625C34365B4B16
:100E30002033694648608B60002F0CD13C460BE0A4
:100E40006119343130462030202209F019FC542039
:100E5000284305460CE08A340C603346143353486B
:100E6000314604F0C7FE482028432D1820354B4E4C
:100E70003146403128AE30460A9104F073FC0B2015
:100E800069460860002430462246234604F08CFC64
:100E90000420694608600F98052801D0099A00E0EF
:100EA00002220528234600D0089B304604F07CFC33
:100EB0000F95E8B2119A151869780991115CEA78D2
:100EC000AB781F27304604966E4637601B029A188F
:100ED0000902099BC91809045218234604F064FC4E
:100EE00068792979EA79AB796E46099737601B02F0
:100EF0009A180902081800041218049E3046234666
:100F000004F052FC687A0790287A0690E87A0590F7
:100F1000A87A03906C7B2A7BEF7BA97B3F206B46F2
:100F2000089018600802C019110209190904421832
:100F3000039800020599401806990902079BC918F1
:100F400009044318304604F02FFC139800282FD0D2
:100F5000687C0790287C0690EB7CAE7C6A7D2F7DB8
:100F6000E87DAD7D6946089C0C60290208183902AD
:100F70008918090442183002C01806990902079B13
:100F8000C9180904431828A804F00EFC182018E01A
:100F900000180020041800207BA00000E41B0020A3
:100FA00031A0000030A000003EA00000601D002025
:100FB00068460899016028A80022134604F0F4FB53
:100FC00010200F990818C0B2119A15186978105C92
:100FD000EA78AB786E46099C34601B029A180002CE
:100FE00040180004121828AE00243046234604F0AE
:100FF000DBFB68792979EA79AB7916256F463D6084
:101000001B029A18090208180004121830462346D9
:1010100004F0CAFBA3487844202631469A4D2A465C
:1010200004F00CF82A4620329F487844314604F0F8
:1010300005F89E48784431460A9A03F0FFFF0D9860
:10104000285C002827D001200F9001028F4F3846DE
:1010500005F022FC6846046044602A46C13214232D
:101060003846214605F0E8FB68462F4660370760A2
:1010700046602A46A13285480F99334605F0DCFBCD
:101080006020295C03220A402A548948784431466A
:101090003A4603F0D3FF13980028149D44D003F080
:1010A00061FE7C482B306946086012981496119CAA
:1010B0002618343637183A463C3225468C35109877
:1010C0000B992B4604F02CFC03F04CFE71485D306C
:1010D000694608600E9830180146143144373A4684
:1010E0002B4604F01DFC48201299084308182018CC
:1010F0002321415C2222825C120251182122825C4F
:10110000149BC05C0002801800040B182B21704A4D
:101110007A44604804F03CF96E4979440020024664
:1011200008F07AFD0C9C89E003F01CFE5548001D78
:1011300039AC13942946224604F08CFB2E2620223B
:101140002FAD3046214614462B4605F0E7FB03F051
:1011500009FE15AF0123304639462A4605F0EEFB5D
:1011600028211491284609F097FA1398214626461B
:1011700009F092FA119C1298251803F0F3FD294604
:101180003431093738461391324609F089FA074657
:10119000414241414748784403F050FF03F0E2FDEB
:1011A0003B48694608605C3523468C3310980B99A0
:1011B0002A4604F0B5FB5420129908432018C1793F
:1011C00082791202511842790079000280180004D5
:1011D0000B1830486430384A7A44149904F0D8F82F
:1011E000002F18D0284D284681302024139E3146E8
:1011F000224609F045FA6846066026486421314ACD
:101200007A44234604F0C4F80D98285C00280BD0DB
:101210002E4979440AE00D981B49085C00280C9C73
:1012200006D02749794405E0274979440C9C01E020
:10123000224979440020024608F0EEFC2068102183
:101240000143216041B0F0BDD520C001803003F0E2
:1012500099F81148784403F0F1FE0EE0672000028F
:1012600003F090F80E4878441421324603F0E6FE6D
:1012700003E00A48784403F0E1FED520C00103F002
:1012800081F8C04604180020E41B0020601D0020E7
:10129000DC180020CA1C0020C4990000289B000014
:1012A0007C9B00003D9E0000389E00003D9E00009B
:1012B000F49D0000F99C000062AB00005ABE0000E3
:1012C000ACBE00004C9B000042BE000096BE000079
:1012D0002AAC0000BEBD0000F0B5A9B015460F460F
:1012E0000646147842490978002903D0039302F096
:1012F000ADFA039B611EC9B20A2968D23743002F99
:101300006DD1A000213098426ED12E9801903948BD
:1013100004700394041D691C002601273748784493
:101320000290E819C27883781B029A1840780978ED
:10133000090208180004121804C40298314603F088
:101340007DFE381DC7B2E919761C0398B042E8D17A
:101350002948203020242246029409F091F903F014
:1013600001FD2448001D21AF03993A4604F072FAAA
:101370002E2604AD3046394622462B4605F0CEFADD
:1013800003F0F0FC0EAC0123304621462A4605F05E
:10139000D5FA2821284609F07FF93846029D2946CA
:1013A00009F07AF903F0DEFC0934134821462A4695
:1013B00009F062F9124979440020024608F02CFC39
:1013C000019A106810210143116029B0F0BD0D4849
:1013D000784403F033FED520C00102F0D3FFD520BE
:1013E000C001803002F0CEFF6720000202F0CAFF89
:1013F0000018002004180020E41B0020519A00006F
:1014000012BE000048980000F0B581B0009105467A
:1014100000240E4E7E44304604F08EF907460C211F
:1014200009F088FB02463846294609F013FB0028DC
:1014300005D0641C0D36082CEDD9002003E0387B64
:1014400000990870012001B0F0BDC0468D9A0000DF
:10145000F0B583B00C460146FF20024604329142AB
:1014600018DC023081423CD08120400081425CD0B7
:10147000914200D09CE09948784403F0DFFD606819
:1014800000680121A1779449A1832121C900401856
:10149000E0601EE14126B200914254D00630814204
:1014A00074D083204000814200D081E0207BA56879
:1014B000012800D1DBE0002800D00AE1206995492D
:1014C0007944072209F0D8F82D202A5C2878A169F0
:1014D00064236E460AC62B46012800D1E9E0223378
:1014E000E8E0A068029000267E4F7F44386804F050
:1014F00023F901784278120251188278C0780002EC
:101500008018000440182269117853781B0259187A
:101510009378D5782D02EB181B04591888424CD0CB
:101520003F1D761C042EE1D349E0A568E3682169DC
:1015300071487844202203F081FD2878032855D192
:101540006F487844AAE0E168002900D00121A5682D
:101550006C48784403F072FDE168002914D02846F5
:101560002130143109F040FA29788A1E022A04D366
:10157000012900D1A6E0002906D12D352946FFF723
:1015800043FF002800D0A2E00320A1E0A568E068A6
:101590005D497944052209F06FF82878811E0229F7
:1015A0002DD3012831D860695849794407222AE0AF
:1015B0004B48784403F042FD8BE002980670606867
:1015C000006842300021435C002B03D1491C1F29D5
:1015D000F9D903E002980078032867D1042E28D1B6
:1015E00041487844042103F029FD5FE02069042884
:1015F00052D1E168681C202209F042F867E0606976
:1016000043497944052209F037F86569284609F00D
:10161000F3F92021295428180021C1717321817107
:101620007422427165220271C1708170467001207E
:101630003DE0029801782D487844425C636993420A
:1016400030D103290ED10298451C2021284609F0EB
:101650000DF86068016862200A5CA81A20304231E7
:1016600009F00EF82348784403F0E8FCDFE720692E
:1016700029497944092208F0FFFFA06927497944E4
:101680000A2208F0F9FFA0692235294609F042F93B
:101690002020012121541CE01848784403F0CEFC9E
:1016A000002015E01248784403F0C8FC00202077A1
:1016B0000FE02133681C2025294608F0EBF80120B3
:1016C000605506E0E0682021405C2D21685401202F
:1016D000207503B0F0BDC04602020000789B0000F8
:1016E000939A000076A2000034990000239A00002B
:1016F00087980000FF980000529A0000159900009A
:10170000899A0000B89A00009B9A0000889A00000D
:10171000379A00007E9B00009E9C0000E29900002A
:10172000F0B583B001910290002B20D01C461546E5
:101730000027284604F000F806460C2109F0FAF9C3
:1017400002463046029909F085F900280BD10C3683
:101750000C21304609F0EEF902463046019909F0B5
:1017600079F9002806D018357F1CA742E1D3002064
:1017700003B0F0BD0120FBE70748017801200029F4
:1017800006D0E521054A515C042902D8032900D07E
:10179000704700207047C0469D180020E41B0020C1
:1017A000F0B583B00C460146FF2002460432914258
:1017B00024DC023081424FD081204000814200D1A0
:1017C00081E0914200D0E4E0A568B348784403F09A
:1017D00035FC2878012800D1E8E0002800D055E148
:1017E000606800680121A1772177691C1635656161
:1017F000A1612121C9004018E06047E14126B20003
:10180000914274D00630814200D1ACE08320400088
:10181000814200D0BDE0207BA568012800D1D2E044
:10182000002800D032E12069A6497944072208F057
:1018300023FF284616300021425CFF2A00D0F5E045
:10184000491C1F29F8D9A069A14979440B2208F045
:1018500013FFA0693635CDE06068A36800684230A8
:101860000021425C002A00D098E0491C2029F8D3CE
:10187000029300268A4F7F44386803F05DFF0178A9
:101880004278120251188278C07800028018000451
:1018900040182269117853781B0259189378D5782B
:1018A0002D02EB181B045918884200D1B5E03F1DEA
:1018B000761C022EE0D300D0B1E07C4878440421AD
:1018C00003F0BCFB6EE0A568E368216978487844C2
:1018D000202203F0B3FB2069242800D18EE00428E5
:1018E00000D093E0E168681C0C3114228AE0E068C3
:1018F00001220028114600D101462069002800D1AC
:101900000246A5686C48784403F098FBE16800291A
:101910004AD04F2000222A5428463630143109F08C
:1019200063F8E0682021405C4E2168542878012843
:101930006AD12169002967D02E464F3601203070C8
:1019400042351431284609F04FF8E0682169143017
:1019500014315A4A7A440923FFF7E2FE002853D093
:101960000220307050E0E06855497944052208F0C3
:1019700083FE60690021C171652181717621417109
:101980006F2101717221C1707021817041700670E8
:1019900049E04248784403F051FB77E042487844FC
:1019A00003F04CFB00203FE0032034E06068006857
:1019B000691C0122A277374AA2832122D200801813
:1019C000E060216162E04F20295C2069002939D064
:1019D0002E464F363C497944092208F04DFEA06955
:1019E000317802294BD1394979440A2208F044FE62
:1019F000A0694335294608F08DFF44E0E1681635BB
:101A00002022284608F03CFE012004E029487844C2
:101A100003F014FB0020207538E00298067021487E
:101A2000784403F00BFB012020772FE04E216A5C05
:101A3000A16964236E460AC6363520212B4607F07D
:101A400029FF20E00021C17173218171417165215D
:101A500001717221C1706421817041700670A069AA
:101A600030210170A069782141700948036820681D
:101A70000268681CA169891C00F036FD03E042354C
:101A8000294608F0B1FF20200121215403B0F0BD08
:101A9000E01B002002020000D3990000B196000074
:101AA000CA9E000044970000A49700005A960000C8
:101AB000A9980000A1950000B098000016970000BA
:101AC000C3960000149800003A9900007896000030
:101AD00096990000074800780021002808D0E520EA
:101AE000054A125C0120032A01D0052A00D1704763
:101AF000084670479D180020E41B0020F0B581B017
:101B00000C460146FF200246043291421BDC0230A3
:101B100081423AD08120400081426CD0914200D075
:101B200097E0A5687248784403F088FA6068006816
:101B3000691C0122A2776D4AA2832122D20080185B
:101B4000E0602161CAE041229200914265D00630F6
:101B5000814273D08320400081427AD1207BA568E6
:101B6000022800D196E0012800D1AAE0002800D088
:101B7000B4E02069684979440E2208F07DFD2120F7
:101B8000C00059490818A169A3E06068A568006809
:101B900042300021425C002A60D1491C2029F9D33F
:101BA0000020554E7E4401285FD007468000305803
:101BB00003F0C2FD01784278120251188278C07891
:101BC00000028018000441182069027843781B0243
:101BD0009A188378C0780002C01800048218012087
:101BE0009142E0D12F706169442979D14548784408
:101BF00003F024FA2BE0A568E368216942487844A1
:101C0000202203F01BFA2069242835D004283CD177
:101C1000E168681C0C31142232E0E06801250028DC
:101C2000294600D10146206900282A4600D10246F3
:101C30003748784403F002FA25754FE0E0683549EB
:101C400079440A2208F018FD606900210170012022
:101C500009E02848784403F0F1F93FE02848784447
:101C600003F0ECF90020207738E022692C48784412
:101C7000042103F0E3F931E0E1681535202228461C
:101C800008F0FEFC0120207528E02048784403F08D
:101C9000D5F923E020690021C171442181714921D6
:101CA00041716E2101716521C1706B2181706F21BD
:101CB000417054210170A1691535284604F03AF9A4
:101CC00009E02069154979440D2208F0D5FCA16985
:101CD000681C04F03FF920200121215401B0F0BD1F
:101CE00006487844B7E7C046DC180020020300002D
:101CF0007C970000F1930000A89B00005D95000018
:101D00008D950000779600007B96000023930000DD
:101D100088960000B0960000869700004696000066
:101D2000B3950000F0B581B01D4616460C46074637
:101D3000302108F09BFC7E637C600698B8633D63AD
:101D4000012038700102204604F0A6FD01B0F0BD6C
:101D500010B584B0826A002A1ED0436A197803AC99
:101D60002170521E5B1C43628262427C002A05D0B5
:101D7000C268521CC260827C002A0AD140680021DD
:101D80006A461160516003AC0123224604F054FD01
:101D90002178084604B010BD0348784403F04EF99A
:101DA000012002F0EFFAC0467F950000B0B582B086
:101DB0000546806A90422CD31446002905D06A6AF1
:101DC00008461146224608F05BFC687C002809D0D2
:101DD000A87C002806D0686A00196862A86A001BFF
:101DE000A86211E06A6A686800216B461960596050
:101DF000234604F021FD686A00196862A86A001B86
:101E0000A862687C002802D0E8680019E86002B087
:101E1000B0BD0348784403F011F9012002F0B2FA92
:101E20001B950000B0B582B00446806A90422BD367
:101E30001546606BF9214254616A633008F020FC5A
:101E4000607C002809D0A07C002806D0606A401978
:101E50006062A06A401BA06211E0626A60680021B3
:101E60006B46196059602B4604F0E6FC606A401925
:101E70006062A06A401BA062607C002802D0E0681B
:101E80004019E06002B0B0BD0348784403F0D6F8D2
:101E9000012002F077FAC046A5940000F0B58DB09D
:101EA000009316460F46054601AC204608F018FD83
:101EB000A085000407D001A8002181850B9804F0BB
:101EC00067FE032412E001A804F062FE0B906F622B
:101ED000AE620098E862284600F01CF8044602282A
:101EE00004D10B48784403F0A9F8022404F044FE1E
:101EF00001A9884202D10B9804F04AFE01A8808D06
:101F0000002802D120460DB0F0BD02F03BFAC046D9
:101F100061940000F0B585B00446054610350746CB
:101F200008370646183667E1A06A002804D16BE13D
:101F3000A16A002900D170E1607C00280AD0216BE1
:101F4000002920D02046884700281ADD012800D12A
:101F500052E16BE12046FFF7FBFE216A4A1C226238
:101F600061180876216A03AA304600F002FA0028B8
:101F700075D1206A052800D148E1A06A0028E9D17E
:101F800042E100D061E12078062813DC03283CDC24
:101F9000012800D100E1022800D1A9E0032800D0E7
:101FA00041E12878002800D052E13868212800D289
:101FB000A6E050E1092874DC072800D1B1E0082828
:101FC00079D0092800D02EE12878002800D045E1FA
:101FD0003868052800D344E1E16888420ED9401AE8
:101FE000A26A824200D30246606B4018FF211E3174
:101FF00041182046FFF7DAFEA068E168814200D070
:10200000FAE0616BFF222232F0E0042800D1D4E034
:10201000052800D1A2E0062800D004E12878002895
:1020200000D021E13868152800D320E1E16888421A
:102030000ED9401AA26A824200D30246606B401851
:102040002121C90041182046FFF7B0FEA068E168D1
:10205000814200D0D0E0616B47229200C6E003A825
:102060000078002800D1E8E0216A6846056004ABEA
:1020700030463A4600F09FF9002800D1E0E0002009
:1020800004990029014606D1616A491E6162A16A6C
:10209000491CA16201212062E060A17401206074EA
:1020A0004DE70A38022800D3BDE02878002800D088
:1020B000E0E0A06824E02878002800D0DAE0A168F9
:1020C000E268914211D90297881AA76A874200D321
:1020D00007468E4878443B4602F0B0FF20463A4619
:1020E000FFF7A0FEA168E268029F8A427FD083E0EA
:1020F0002878002800D0C0E03868212800D3BFE04D
:10210000E16888420AD9401AA26A824200D3024694
:1021100000212046FFF74AFEA068E16881426BD1AA
:1021200065E02878002800D0ADE03868212800D389
:10213000ACE0E16888420CD9401AA26A824200D31E
:102140000246606B411842312046FFF72FFEA0681F
:10215000E168814250D1616B622247E02878002813
:1021600000D096E03968212900D395E0E0688142EB
:102170000CD9091AA26A8A4200D30A46616B09186F
:1021800021312046FFF712FEA168E068884233D172
:10219000606B412281542AE02878002800D188E031
:1021A0000020607402202070A06860612C20205CF8
:1021B000C00721D1032020701EE02878002872D1AA
:1021C0003868212872D2E26890420BD9616B891875
:1021D000801AA26A824200D302462046FFF7E6FD3B
:1021E000A068E268824207D1616B202288540020F7
:1021F00060742078401C207021780220092900D1C9
:1022000096E60C2907D08FE6002004E02E4878449B
:1022100002F014FF032005B0F0BD616BFF222232F3
:1022200000238B54F7E72D487844F1E702280AD0C1
:1022300003280AD126487844EAE722487844E7E7A9
:102240001F487844E4E70120E5E720487844DFE7C9
:10225000204878442FE0254878442CE02C487844E6
:1022600029E02C48784426E01B48784423E02548A0
:10227000784420E0244878441DE01A4878441AE065
:102280001948784417E01D48784414E01C48784405
:1022900011E0194878440EE01F48784402F0CEFE61
:1022A000012002F06FF81248784404E011487844A5
:1022B00001E00B48784402F0C1FE012002F062F810
:1022C00045910000199100005D91000067910000A8
:1022D00063910000F7910000D6920000AE910000DB
:1022E0003F91000095910000AA9100000D9200001E
:1022F000DB910000F49100002F9200007E9200001C
:1023000094920000E9920000FE920000BB9400004D
:102310005B9300006D93000048920000B0B58CB054
:1023200004466D46284608F0DBFAA885000407D06D
:102330006846002181850A9804F02AFC032407E0FE
:10234000684604F025FC0A902046FFF7E3FD0446AA
:1023500004F012FC6946884202D10A9804F018FC85
:102360006846808D002802D120460CB0B0BD02F036
:1023700009F810B50078C308172B19D38409022C6B
:1023800007D80346B63B8B4209D880082F280BD2CA
:102390000EE01F2B0CD30346F63B8B4201D90020E5
:1023A00010BD80083F2803D300201070012010BD0D
:1023B0000120107010BD70B5017849B2049C00294D
:1023C00004DB002018600121116009E0C9B2CD08CA
:1023D000162D08D80121196000788038106000207F
:1023E0002070084670BD8E09022E0FD8B6391960CC
:1023F000002121700378B92B11DCB82B3CD0B92B0C
:10240000EFD181784078000240183EE01E2D14D8AC
:10241000012119600078C03810602170E1E7BA2B03
:102420002CD0BB2BDDD14178090683781B045918C9
:10243000C3781B02C918007926E0F6391960012318
:10244000237004780021F92C08DCF82C20D0F92C1A
:10245000C7D1817840780002401822E0FA2C19D0C8
:10246000FB2CBED141780906847824046118C47815
:1024700024020919007913E0407806E04178090444
:1024800083781B025918C078081810600121A8E74A
:10249000407806E041780904847824026118C07805
:1024A0000818106019469CE7F0B58DB004931546E6
:1024B0000391074601242102104604F0EDF9202083
:1024C0006946486005AE0E6009374023284621461C
:1024D0003A4604F0B1F90C36304603992A46049B7B
:1024E00000F002F80DB0F0BDF0B593B00392049186
:1024F00005465B69012118460591884300261E2880
:10250000304609D106AF3321274A7A44384602F0D3
:102510003FFF384608F070FA06A902900818234FCA
:102520007F44A95D0F240A092140795C4170B95CA0
:102530000170801C761C142EF3D105980102039EB5
:10254000304604F0A9F920206946486006AA0A60CE
:10255000029B28333046059904F06EF90020049E52
:10256000024605990A404308E95C002A01D021404F
:1025700000E00909092901D8795C0BE006AEF35C9B
:102580009200042656400822B240795C1A4200D0DC
:102590002039049E3154401C2828E1D128200021F4
:1025A000315413B0F0BDC0462C910000CB90000018
:1025B000F0B5DDB00446406BF927C65D03AD284693
:1025C00008F08EF9A88500040AD003A800218185AF
:1025D0000D9804F0DDFA6C48784402F02FFDA6E077
:1025E000019603A804F0D4FA0D900294656BE95D9E
:1025F0002846F9306F3500220D29134615D30023E4
:1026000019465C082C5DDE0702D00F26344000E03E
:1026100024095B4E7E44345D12AEF454491CCBB2A7
:1026200004786400183C9C42EBDC12A9CA5402787E
:102630000C3A5448784402F001FD029C626BD05D74
:102640000C2874D32878C308172B5FD201263702D1
:10265000D01969460860FC3211AB2846FFF7ABFE83
:10266000002864D0606BC05D002860D011980FAC6A
:1026700069460C602D1810AA11AB2846FFF79BFE87
:10268000217800295FD000285DD0109811990FACF7
:102690006A46146040182D1810AA11AB2846FFF79F
:1026A0008AFE217800294ED000284CD0109811992C
:1026B0000FAC6A46146040182D1810AA11AB2846BA
:1026C000FFF779FE21780029029C30D000282ED017
:1026D000A878942808D12120C000616B0818ED1C4F
:1026E0001422294607F0CCFF687D80282DD028468B
:1026F00015300FA96A46116010AA11ABFFF75BFEF7
:10270000002822D0606B109E16352EE001990C39FE
:10271000C9B28409022C04D8B6388842029C95D9E3
:1027200005E01F2B029C91D3F63888428ED904F025
:1027300023FA03A9884202D10D9804F029FA03A8CC
:10274000808D00281AD15DB0F0BD0FA869460860E1
:102750002846163010AA11ABFFF72DFE0028E6D050
:10276000606BFA214654109E173542302946324696
:1027700007F086FF606B62214654D8E701F002FE45
:10278000D78F0000C88F000046900000F0B581B0E0
:102790000E46054601290AD12878302807D1022B98
:1027A0002DD30020507030201070012064E0069C72
:1027B000B44221D2B01C984221D80092301B09D0DB
:1027C00029460246009B0F781F70491C521E5B1C55
:1027D000002AF8D1002C0146009F02D02E21395446
:1027E000411CB0422DD27A182B1800201D5C1554C4
:1027F000401C8442FAD122E0E01C984201D900201A
:102800003AE0A71B2E20507030201070002F0BD004
:102810000092901C3022394607F036FFA01C811B25
:102820007F1EFDD1009F01E002211746002E08D037
:102830007A1800202B5C1354401C8642FAD10A18E7
:1028400000E00A460024BC540120914214D27D5C71
:10285000002C0B4600D02346302D00D00023491C0D
:102860008A421C46F3D1002B06D00021F9545A1E8F
:10287000BB5C2E2B00D1B95401B0F0BD70B514462D
:102880000D460646202107F0F1FE3561746170BDEA
:1028900070B514460D460646182107F0E7FEF560B0
:1028A000346170BD80B5202107F0E0FE80BD70B5B9
:1028B00014460D460646182107F0D8FEF56034612F
:1028C00070BDF0B581B01C4615460E460746202166
:1028D00007F0CCFE0698FE603D617C61B86101B0F6
:1028E000F0BDF0B581B01C4615460E4607462421C2
:1028F00007F0BCFE0798F8610698B8617C613D61FD
:102900003E7301B0F0BD0000F0B587B005465348F6
:102910000024847706910A6952487844042102F021
:102920008DFB514E7E44706802F006FF002850D0A7
:102930000746049401961421002D32D04C433019DF
:102940000590047A002C2CD003910295002506985E
:102950000669386802F0F0FE0178427812025118D8
:102960008278C078000280180004401831787278AC
:1029700012025118B278F3781B029A1812045118F7
:10298000814208D10598006800280CD002F0D4FEDE
:102990008047002807D13F1D6D1CA542D7D3029D5B
:1029A00009E004980AE0059909312C4808F01CF860
:1029B000012181770025019E04980399401C049011
:1029C000C4B261437018406802F0B6FE07460028A2
:1029D000B1D1002D09D022480078002805D0234825
:1029E000784402F02BFB002735E02148784405901D
:1029F000204878440390194C1F4E7E441F48784469
:102A00000490059802F01AFB002D05D014210498BB
:102A10002A4602F013FB03E00398214602F00EFB66
:102A2000FF2102312846069A00F02CF8074630466E
:102A3000394602F003FB002F0DD0022F02D0012FE8
:102A4000DFD101E00025D0E70D487844214602F0AF
:102A5000F5FA0127A777384607B0F0BDE41B002040
:102A60009C180020218D0000CC8E00006A8C000094
:102A7000828C0000A28C0000AB8C0000818C0000D6
:102A8000728C0000F0B59FB014460D4601467248A6
:102A90001D9072481E900029039105D015AF142295
:102AA0003846FDF7CBFA04E06D4FB87F002800D11F
:102AB000A2E0FF210A46043295420BDC08460230B0
:102AC000854200D19DE08120400085420FD0954293
:102AD0000DD0A5E041208000854208D00846063090
:102AE000854204D083204000854200D098E00192C6
:102AF000029104951DA860601EA8206058484430CB
:102B0000082105946050594E7E44707A002816D0F2
:102B100031460931384607F023FF002827D0012528
:102B2000ECB2142060433118487A002807D00931EC
:102B3000384607F015FF6D1C0028F1D118E0059C00
:102B40001494049D1395129706AE304607F0C8FE04
:102B5000B085000419D006A800218185109804F0E2
:102B600017F843487844394602F068FA14E0002424
:102B7000142060433018006902F0DEFD0246049D17
:102B80002846059C2146904712E006A804F000F86C
:102B9000109012A803F08CFF03F0EEFF06A9884204
:102BA00002D1109803F0F4FF06A8808D002851D1BF
:102BB000029A019B00209D420ADC0232954236D0E7
:102BC000812149008D4211D09D4241D1A17F0EE06B
:102BD000412189008D4209D00632954234D08321AB
:102BE00049008D4234D12021615C2EE0217D0222FA
:102BF0000A43032A2BD02BE01A48784402F01EFA2D
:102C000013E00192029104956020E0601DA86060CD
:102C10001EA82060124801464431A160182170E7C7
:102C200011487844294602F009FA002010E0217F7B
:102C300002290CD001290BD10398002807D008489D
:102C4000394607F0D1FE02E0217F012900D10120A1
:102C50001FB0F0BD01F096FBDC180020601D0020C5
:102C6000E41B0020D98A0000DD8A0000E88C000007
:102C7000B58B000010B58AB028206946086011495C
:102C80000B46643302AC64222046FFF71AFE0F485D
:102C900000782D2804D02120C0000B49081800E03E
:102CA0000020FF2106312246FFF7ECFE002806D166
:102CB0000748784402F0C2F9002004F0DFFD0AB0B2
:102CC00010BDC046CA1C0020DC180020E41B0020F8
:102CD000A28B000010B58CB042200F49095C28205F
:102CE0006B4658600D4A10466430186003AC64238C
:102CF0002046FFF7F6FD8320410000202246FFF723
:102D0000C1FE002806D10648784402F097F9002059
:102D100004F0B4FD0CB010BDE41B0020CA1C002060
:102D2000728B000010B543221E498B5C002806D030
:102D30004220012B0CD100230B548B540DE0012BAE
:102D40000ED100208854FFF7C5FF06F09FFE10BD8E
:102D50000B5C002B1ED05A1E0A54FFF7BBFF16E077
:102D600042200B5C41240C5D641E9C420DDD5A1C0C
:102D70000A54FFF7AFFF06F089FE0B4800214160BF
:102D80000078401E07F0D0F810BD0120885406F0EE
:102D900077FE10BD00230B540120885406F076FE08
:102DA00010BDC046E41B0020001A002010B50446E8
:102DB000FFF760FF204607F08DF910BD80B50120B8
:102DC000FFF7B0FF80BD80B50020FFF7ABFF80BDEF
:102DD00010B5044604485D30322100F05FFB204608
:102DE00007F078F910BDC046CA1C002080B500204D
:102DF00004F0D0FC80BD80B5002004F03FFD80BD14
:102E000080B54221054A00205054432101235354E8
:102E100003497944024606F0FFFE80BDE41B002012
:102E2000AE8B0000F0B5FFB092B00D4604464548A9
:102E30007844214602F002F921694348784402F0BF
:102E4000FDF84248784402F0F9F82069002867D07C
:102E5000A0680278511EC9B209295ED89100237B6F
:102E60005B1E8B4259D10495401C19A91346C578A5
:102E7000867836027519467807783F02BE193604FF
:102E8000AD1920C1001D5B1EF1D100266846066009
:102E90002120059019AF06AD39462B4603F0D2FD2F
:102EA00034210391384607F0E1FB2022059829469A
:102EB0003B4603F033FD4C210291284607F0D6FB38
:102EC0000123059829463A46059303F037FD384615
:102ED000039907F0CBFB26AA28463946049BFFF747
:102EE000E3FA2846029907F0C1FB2469207861784B
:102EF000090208181249884200D1A41C384607F07C
:102F00007BFD421C3846214607F0CAFB002810D042
:102F10001048784402F092F807E01048784401E045
:102F20000B48784402F08AF8002630467FB012B091
:102F3000F0BD0948784402F081F8059EF5E7C046E7
:102F4000307800007C8D00008A8D0000978D000095
:102F5000D68C0000FD8C0000F28C0000FC7C000090
:102F6000F0B587B00F46054604460E341E262046AF
:102F7000314607F07BFB297B212904D31B48784489
:102F800002F05CF823E02979286803AA06AB06F072
:102F9000C5FC002817D0687B00281AD00A213846C3
:102FA00007F0C8FDC2B20292394603AF384607F0B7
:102FB00063FB20200299785478180021417006A8FC
:102FC0001222027007E00A48784402F037F8002025
:102FD00009E006A80278297BA8686B4650C303ABBA
:102FE00006F058FC012007B0F0BDC046BA8C0000C6
:102FF000A88C0000F0B5ADB00D46044609AE8F2197
:10300000304607F033FBA1692B22304607F05CFD08
:103010002A20315C002000293CD1217B202939D88D
:10302000217D082936D82179206805AA08AB06F049
:1030300075FC002829D008A803900278217BA0689D
:10304000322604966B465E6009AE37462B371F600A
:1030500005AF3B4606F01EFC3846294607F0C4FC87
:10306000122203980270217D20696B4634465D343C
:103070001C60049C5C603B4606F00CFC06488F22FA
:10308000314607F0F9FA012004E00448784401F0E1
:10309000D5FF00202DB0F0BDCA1C0020E48B00003D
:1030A000B0B582B01649086000F0D0FB1548012485
:1030B000047001F0A9FB1548784402F03DFB8078CC
:1030C00001280BD001ADAC70002028801048784456
:1030D00002F032FB0322294603F092FB21020A4848
:1030E00007F0C4FA002006F0B5FA204606F0B2FA5E
:1030F0000848784401F0A2FF00F07EFD02B0B0BDA8
:10310000E01B00209C180020001A002004A70000EB
:10311000EEA600009A8B0000B0B5104C4122227040
:10312000601C0F4D2946083107F0A6FA42202822DC
:1031300022542046433029464C3107F09DFA952011
:10314000285C002808D06B3475352022204629469B
:1031500007F092FA8B20B0BD6B20B0BD091F002094
:103160000418002010B500228B5C002B0AD1521CE1
:10317000082AF9D306D100218170302141700170F5
:10318000022010BD891808239C1A224606F00EFB67
:10319000600010BDF0B58DB0044600780025082809
:1031A00000D0AEE0A068002800D1AAE08448012148
:1031B000017047208000834F385C002800D1A0E0D8
:1031C000E668002E1CD004918148784402F0B4FADD
:1031D00041787D48827F0A43110600D191E0402169
:1031E000405C1F2101402020471A0021A068801B5D
:1031F000B8420ED27D48784401F020FF032580E0DC
:10320000A06A03282ED87348784401F017FF0326DC
:1032100076E00191A66ABE42029600D33E46E1687E
:1032200073487844324601F009FF4020664D039010
:10323000285C29181F3120463246FEF7B7FDA068EA
:10324000E168814204D1002060742078401C207025
:103250000399685C801968540298B84204990FD2A7
:103260000D464EE004915848002686775A48784427
:1032700002F062FA4078002820D0534FB87F2BE04C
:10328000A87F00285AD004913F27E85D4001021D25
:1032900029461F3105AE3046FFF7FAFA812041007A
:1032A000002420463246FFF7EDFB002857D0039854
:1032B0002C54E85D401CE855049D22E0A268616A38
:1032C00005A80390FFF7DAFA2120C0003818039907
:1032D000FFF71AFB3C4FB877C1B24048784401F081
:1032E000ADFEB87F00280FD040203E543F203E5412
:1032F000042220463146FEF759FDA068042803D178
:10330000354628460DB0F0BDE6683548784402F0F1
:1033100013FA002E00D05BE7007800284BD032482B
:10332000784402F009FA4078002847D0402000266F
:103330003E543F203E540427012157E701980028BE
:1033400010D0002403982C541F352048042229460D
:1033500006F02CFA284979442046224627E02548E1
:10336000784449E70020039968543F20295C491CB0
:103370002954CBB2154C2046643028211F4A7A4488
:1033800002F006F829461F312046FFF7EBFE2726FC
:103390003A212154A919471CE019FFF7E3FEC0198F
:1033A00008363F2EF4D1164979440020024606F033
:1033B00033FC0225A5E70B4878441DE70025A0E76C
:1033C000081F0020DC180020E41B0020CA1C00207D
:1033D000F2A50000968A00004EA50000DD890000DD
:1033E000B0A40000158900009CA40000ED8A000034
:1033F000D48A0000B68900007A970000B6890000E0
:10340000D0970000B0B50C460546002A2CD02846BF
:1034100007F0F2FA01060BD0C0B200216A5C002A64
:1034200006D0602A00D9203A6A54491C8142F5D35B
:10343000204607F0E1FA01060BD0C0B20021625C21
:10344000002A06D0602A00D9203A6254491C8142E1
:10345000F5D3284607F0D0FA02462846214607F061
:103460001FF9002805D1B0BD2846214607F0BCFA57
:10347000B0BD014800F086FF0160000010B50446B1
:1034800000F0E4F9D520C001002C04D100F012FABC
:1034900000F0FEF910BD00F075FF000070B50E469B
:1034A0000446164800680A3002F046F905461448FA
:1034B000784401F0C3FD2046314607F0D7F828785C
:1034C000002809D0002213461946A0545B1CDAB22A
:1034D000A85C0028F8D100E0FF21C8B22018002124
:1034E0004172312101723021C171817141710171CB
:1034F000C1702E228270417070BDC046E01B00205A
:103500008D880000F0B59FB00990B44F386802F084
:1035100013F9079038684069002817D0B04806F0C2
:1035200073F9044638684069A0420FD000F08EF964
:1035300038684269B2487844214601F07FFD099C11
:103540002046FFF79BFF002C00D142E12026684671
:103550004660A44A2C320260A34801250024294673
:10356000234603F069F9A148807F122100280895BD
:103570000591069446D004960AAF3846FFF792F9B3
:10358000FF2604360025284631463A46934FFFF77A
:1035900079FA00280AD19B48784401F04FFD099C34
:1035A0002046FFF76BFF002C00D112E10D98002898
:1035B0002AD000F0E1F904460E98002802D000F06D
:1035C000DBF9054612AF3846039421462A46FFF739
:1035D0006EF9711C00203A46FFF754FA00280AD110
:1035E0008948784401F02AFD099C2046FFF746FFF0
:1035F000002C00D1EDE012A8007D0AA98877089977
:10360000764F06E02C4609E00AA8807F002103914E
:103610000899049C754A032843D10C4674480078E5
:10362000002811D07B48784402F086F80078002802
:103630000AD17948784401F001FD099D2846FFF739
:103640001DFF002D00D1C4E0002C069962D03A681D
:10365000684C65492046FEF7ABFF606BFA21405C81
:10366000012804D138680A3002F066F80790472034
:1036700080005B4C205C002821D012AD782068705F
:10368000302028702120C00020183B68A91C564A11
:10369000FEF72AFF5848027858482946FFF7B2FE3D
:1036A00013E00AA8017F01294FD002297FD10AA87F
:1036B000407F412150544E48002101702AE04F487C
:1036C00056497944092206F0D7FF6220215C322650
:1036D0006846466012AD056042342046059A079B55
:1036E00006F0D8F8444F3A78444C20462B3029460F
:1036F000FFF788FE28463146FFF7D0FE4848784459
:10370000294601F09BFC3A785D3420462946FFF7B4
:1037100079FE089938480078002803D0002004F08A
:1037200039F856E000290DD031480078002806D03D
:103730003C48784402F000F84078002843D03B49E8
:10374000794442E0FFF75CFB43E029480021017027
:103750000F99002902D0109D002D0CD12B487844E0
:1037600001F06CFC099C2046FFF788FE002C30D04D
:10377000109D0F99049C1A4F38464230224606F09D
:103780007FFF62203C542120C000381814262946AF
:10379000324606F075FF472080003E540399002909
:1037A00019D0085D05901431089C079114E0184861
:1037B000784401F043FC099C2046FFF75FFE002C93
:1037C00007D000242AE7184979440020024606F071
:1037D00023FA1FB0F0BD089C004F1FE7E01B00203C
:1037E000DC18002004180020601D0020E41B0020CD
:1037F000081F0020A01800209C180020CA1C0020D0
:1038000010880000CE870000A187000047860000D6
:103810001D86000096A10000998600004E7C0000E5
:10382000E98600008AA00000C494000030950000E2
:1038300010B50449083104484124224606F01CFF13
:10384000204610BD04180020091F002080B58E20DE
:10385000094900220A5209480270094802700948C1
:10386000027009483C2106F001FF49208100074809
:1038700006F0FCFE80BDC0460418002000180020A1
:103880009C1800209D180020A0180020DC180020A3
:1038900080B506480078002801D106F079FD04497A
:1038A00079440020024606F0B7F980BD001A0020D6
:1038B000348E000080B504494870000A087020204A
:1038C000022101F0AFF880BD091F0020F0B581B0E2
:1038D00004461748401C402106F0C8FEE078212825
:1038E00001D0042700E00527E119202521282E46D4
:1038F00000D006460E48801B2130324606F0C0FE3E
:10390000B81C8119C8B220180022D243805C21283B
:1039100000D1491CC9B26118212800D005460448CD
:10392000401B41302A4606F0ABFE01B0F0BDC04658
:10393000091F0020B0B505460720284000240128B3
:1039400012D0022812D1002907D00A4803F0ECF85F
:10395000280609D502F04AFF06E0FF21523105484A
:10396000002203F0F9F804462046B0BD022000F022
:1039700009FDC046091F0020F0B581B006460F4F73
:103980003C464C34002578198E21405C002806D036
:1039900014222046314606F083FE002805D021344B
:1039A0006D1C022DEFD3002404E00548784429461D
:1039B00001F044FB204601B0F0BDC04604180020D1
:1039C00059840000F0B58FB00C46054603AF384669
:1039D00006F086FFB88587B2002F28D0102F00D1BF
:1039E000EBE0064603A8002585850D9803F0D0F886
:1039F0000F200003304009210903884215D003211C
:103A0000490388423FD18E2075490D527548057093
:103A1000754805707548057075483C2106F026FE0E
:103A200049208100734806F021FE380A40E003A8CF
:103A300003F0AEF80D90694A1078E02811D0F02814
:103A400000D0C3E05078072849DC022861D11379FF
:103A5000D17890786E4635607460521DFCF7EEFFA9
:103A60006EE05078072846DC02286ED0042800D08B
:103A700087E01379D17890786E4635607460521D76
:103A8000FCF728FF1DE08E2055490D525548057062
:103A9000554805705548057055483C2106F0E6FD2F
:103AA00049208100534806F0E1FD7005400F683061
:103AB00021684A4A50542068101846702068801CBB
:103AC000206003F059F803A9884202D10D9803F051
:103AD0005FF803A8808D002835D000F053FC08283B
:103AE00023D11379D17890786E4635607460521D79
:103AF000FDF728F824E0082835D00A284DD113799D
:103B0000D17890786E4635607460521DFCF7B4FC35
:103B1000D7E704285ED11379D17890786E46356066
:103B20007460521DFDF780F80AE00A2852D113791B
:103B3000D17890786E4635607460521DFDF7CCFBED
:103B40000D9803F025F80FB0F0BD8E202449002316
:103B50000B521379D17890786E4635607460521D9F
:103B6000FCF7E6FBADE78E201D4900230B521379CD
:103B7000D17890786E4635607460521DFCF70EFD6A
:103B80009FE7062826D11379D17890786E46356064
:103B90007460521DFCF7B0FB93E70C281AD18E20FD
:103BA0000F4900230B521379D17890786E46356017
:103BB0007460521DFCF722FE83E703A80021818573
:103BC0000D9802F0E5FF102000F0DCFB37204002EA
:103BD00000F0D8FB6D20000200F0D4FB091F00208C
:103BE00004180020001800209C1800209D180020B8
:103BF000A0180020DC18002090B000240F940E9430
:103C00004A4878440190414D02AF384606F068FEBC
:103C1000B88587B2002F26D0102F6CD0064602A898
:103C200084850C9802F0B4FF0F2000033040092176
:103C30000D03A84215D00321490388422BD18E20C1
:103C400034490C52344804703448047034480470C9
:103C50003C21344806F00AFD49208100324806F034
:103C600005FD380A2CE002A802F092FF0C900FA884
:103C700001880F940EA8007800F0D4FE0E9400285E
:103C800041D0014601982A4601F0D8F90EA80FA9A3
:103C9000FFF798FE21E08E201E490C521E4804704A
:103CA0001E4804701E4804703C211E4806F0DEFCCD
:103CB000492081001C4806F0D9FC7005400F68308F
:103CC000AF4203D010210E9A8A430E920F990F4DE6
:103CD000685468184670881C0F9002F04DFF02A9C6
:103CE000884202D10C9802F053FF02A8808D002870
:103CF0008AD000F047FB02A884850C9802F048FFA8
:103D0000102000F03FFB024800F03CFB091F0020A0
:103D10008269000004180020001800209C18002070
:103D20009D180020A0180020DC1800201C82000034
:103D300080B500F0DFFD80BDF0B581B0E74D28789B
:103D40000C2805DC052800D198E00C280DD1B9E13C
:103D50000D2800D1ECE0152807D1E348807901282F
:103D600003D1A879000700D4B5E1DD4C00276760D6
:103D700001202070204602F08FFE042002F014FF84
:103D80006060692844D100F05BFD00F05BFDBE255A
:103D9000D44E7753042002F007FF6060002800D162
:103DA00090E1972800D18DE1C0243059002800D13E
:103DB00088E1705BC421715C80B2884200D381E1EC
:103DC00002F0BEFE002800D07CE102F02FFEAA28FF
:103DD00004D102F055FEAA2800D073E13059715B7E
:103DE00049014018CC217158002902D08847002889
:103DF00007D0012803D13059715B4901401800F008
:103E000079FD705B401C705331590029D2D159E1C2
:103E1000C025B44C6059002800D14BE1BE26A05B00
:103E2000C421615C80B2884200D343E102F088FE85
:103E3000002800D03EE102F0F9FDAA2804D102F0EA
:103E40001FFEAA2800D035E16059A15B4901401846
:103E5000CC216158002902D08847002807D00128CA
:103E600003D16059A15B4901401800F043FDA05BFC
:103E7000401CA05361590029D2D11BE1984C002766
:103E8000676001202070204602F006FE042002F048
:103E90008BFE6060002800D114E1972800D111E169
:103EA000692800D0CDE000F0CBFC00F0CBFCBE25B3
:103EB0008C4E7753042002F077FE6060002800D11A
:103EC00000E1972800D1FDE0C0243059002800D13E
:103ED000F8E0705BC421715C80B2884200D3F1E0ED
:103EE00002F02EFE002800D0ECE002F09FFDAA2890
:103EF00004D102F0C5FDAA2800D0E3E03059715B7F
:103F000049014018CC217158002902D08847002867
:103F100007D0012803D13059715B4901401800F0E6
:103F2000E9FC705B401C705331590029D2D1C9E0C3
:103F30006B4C0027676001202070204602F0ACFD2A
:103F4000042002F031FE6060002800D1BAE0692848
:103F500038D0972800D1B5E0C025624C60590028C0
:103F600000D1A7E0BE26A05BC421615C80B288427C
:103F700000D39FE002F0E4FD002800D09AE002F0B8
:103F800055FDAA2804D102F07BFDAA2800D091E0BB
:103F90006059A15B49014018CC216158002902D029
:103FA0008847002807D0012803D16059A15B490147
:103FB000401800F09FFCA05B401CA05361590029F1
:103FC000D2D177E000F03CFC00F03CFCBE25454E31
:103FD0007753042002F0E8FD6060002872D0972833
:103FE00070D0C024305900286CD0705BC421715C43
:103FF00080B2884266D202F0A3FD002862D102F0AE
:1040000015FDAA2803D102F03BFDAA285AD1305948
:10401000715B49014018CC217158002902D08847B2
:10402000002807D0012803D13059715B490140189D
:1040300000F060FC705B401C705331590029D5D1F1
:1040400040E0D020274C2058002803D0E9784908C8
:1040500000F094FCC025605900282BD0BE26A05B40
:10406000C421615C80B2884224D202F069FD00283C
:1040700020D102F0DBFCAA2803D102F001FDAA281E
:1040800018D16059A15B49014018CC216158002921
:1040900002D08847002807D0012803D16059A15BCE
:1040A0004901401800F026FCA05B401CA053615958
:1040B0000029D5D1C420205CBE21615A814201D3A0
:1040C00002F03EFD02F03CFD002801D100F072FA42
:1040D000012001B0F0BD102000F054F9001B0020B9
:1040E000481B0020001A00205C20002010B58CB076
:1040F0006C46204606F0F4FBA085000406D1684615
:1041000002F046FD0A90FF2002F002FD02F034FDAD
:104110006946884202D10A9802F03AFD6846808DCD
:10412000002801D10CB010BD00F02CF9F0B595B00D
:104130000446002815D10EACE01D152106F096FAB4
:104140003A497944072520462A4606F095FA204642
:104150000A30374979442A4606F08EFA0020207644
:1041600013908E20294D00262E522948067029488A
:104170000460294806702948067029483C2106F049
:1041800075FA49208100274806F070FA90202E54D5
:10419000254C01273902204606F068FA02AD284670
:1041A00006F09EFBA88585B2002D0DD002A886855D
:1041B0000C9802F0EDFC0C9802F0EAFC102DE8D00F
:1041C000FFF794FF15B0F0BD02A802F0E1FC0C90DF
:1041D00000F01AFB1748784401F0AEFA8078012805
:1041E0000AD001ACA77026801348784401F0A4FAE5
:1041F0000322214602F004FB002005F02BFA0120E7
:1042000005F028FAFFF744FBFFF7F6FC041800203E
:1042100000180020E01B00209C1800209D180020A2
:10422000A0180020DC180020001A0020F57C0000F7
:10423000EA7C0000E6950000D295000094B00446A8
:104240008068002816D10DADE81D152106F00EFA84
:104250002C49794407262846324606F00DFA2846AE
:104260000A3029497944324606F006FA00202876B9
:104270001290A5600027254D7D4401AE304606F022
:104280002FFBB085000407D101A802F081FC0B9040
:10429000F8070FD002F018FC02F06EFC01A988426A
:1042A00002D10B9802F074FC01A8808D002827D160
:1042B0000127E2E70A2002F08DFA284600F0BEFE50
:1042C0006068022812D004280BD00328E2D1E068ED
:1042D00000218161A168E068FEF7A4FDE1688861C2
:1042E000D8E7A168E068FEF73BFED3E7A168E06885
:1042F000FEF780FE0028CDD0A068FEF7D1FEC9E70A
:1043000000F040F8E57B0000DA7B0000CD7B000088
:1043100080B5002002F03CFC80BDB0B5884208D9D1
:10432000002A0FD0491E401E8B5C8354521EFBD1C5
:1043300008E0002A06D000239CB20D5D05555B1CE9
:10434000521EF9D1B0BD80B5002A04D00B461146EB
:104350001A4606F099F980BDB0B5401E491E002AE4
:104360000AD0551E8B5C845C9C422A46F7D09C4246
:1043700004D80020C04302E0002000E00120C0B2C9
:10438000B0BD00000446724604487844214600F05F
:1043900055FE02F0F1FB214606F0AEFACE7A00009F
:1043A000B0B582B001920092002A0CD0431E491E83
:1043B00000209C5C8D5C65402843521EF9D1002191
:1043C0000091019100E000200099019A914202D1F0
:1043D000C0B202B0B0BD0120FFF7D4FFF0B58BB082
:1043E0000746002000295BD0119D002D58D00A926D
:1043F0006F4C109E0994621C32400492002A02D134
:104400002C68002C4CD000200A9A002A044600D0C8
:104410001468022944D30694019509980296304005
:104420000990129803900020C4430594DAB20792D1
:104430000B463E4608909B1E32D00A463946B51CB4
:104440003078767877B2002F12DA80375FD07F2706
:104450003E40059C66430027002E08D02C783F0282
:104460003F19761C5B1E6D1C002BF5D117E03E46F4
:104470000A9C079FB8420F4606D1002C12D0E81BB9
:104480002060069981420DD9B3421C46114600D3E3
:104490003446AE191B1B012B0898CCD800E0002035
:1044A0000BB0F0BD0998984231D886422FD31146FF
:1044B000341A039A944202D0029A002A27DB9C42C3
:1044C00000D31C46039A944200D8224688421ED844
:1044D0008A421CD81018884219D8BD4217D30998AF
:1044E0004019B84213D30A901018B8420FD3791864
:1044F000A9420CD30A9D8D4209D8884207D8049856
:10450000002806D001980A9901602046C8E708985B
:10451000C6E7019801680298002823DB0A988142C7
:1045200028D9002A0898BBD0059C101B0919E41A49
:10453000099B5B1E9B1BA34200D823460A9C2418A0
:1045400009180598039D401B834200D80346A01E0E
:10455000491E5B1C059D04780C70401949195B1CB1
:10456000F9D122E008460A99FFF71AFF01464042B6
:10457000484195E7002A089892D00598C31A0998EF
:10458000401E801B984200D81846059B039C1B1BAD
:10459000984200D81846401C00230A9E9CB2355D04
:1045A0000D55401C5B1C0028F8D1104678E7C0462A
:1045B000FFFFFF3F80B502F0C3FA002800D080BDA6
:1045C000064800210171C170022282704170602191
:1045D0000170052102F0A8FA80BDC046001B002032
:1045E000B0B51A48C078032807DC01280DD002288E
:1045F00028D1174804F0B3FBB0BD04281FD0082809
:1046000020D1134804F0A9FBB0BD114C0121204674
:1046100004F09EFB204604F07DFB0E4CA0790028A0
:1046200011D120460C30002504222946FFF78BFECD
:104630001034082220462946FFF785FEB0BD044805
:1046400004F089FBB0BD1020FFF79CFE001B00208A
:104650001C2100205C2000207F210140032903D879
:1046600002484018007B7047002070475C20002003
:1046700080B515480179042917D0022906D00129EF
:1046800020D1811D124804F04EFA80BDC2787F21EE
:104690001140032916D84A000C4B9A1800231382A4
:1046A000821D0B4804F0C4FA80BDC2787F211140FE
:1046B000032907D8054A521843791373821D044809
:1046C00004F05FFA80BDC046001B00205C20002083
:1046D0001C21002070B5FF2A1ED815460E46044640
:1046E0000E48427120210171502101708021214327
:1046F000C170D11C8170090A4170062102F014FAC0
:104700003046294602F010FA7F202040400004493C
:1047100008187D210901018270BDC046001B0020E0
:104720005C20002080B50A46014682201423FFF752
:10473000D1FF80BD80B50A46014683201423FFF7D0
:10474000C9FF80BD80B50B480178002900D080BD2D
:10475000062181710A21017007498A784B781B0272
:104760009A18452A00D345224280C91C0348FFF706
:10477000D4FD80BD5C200020001B0020091F00200C
:1047800080B51F4988784A781202101809780F29D5
:1047900009DC0E290FD00F2920D1012824D1FFF7E1
:1047A0001FFF012080BD10291CD0162916D1FFF74C
:1047B000C9FF012080BD13488168643181601621E2
:1047C000425A002A07D0642A134600D36423D21A1F
:1047D000425212040ED0891E0E29F1D10220FFF799
:1047E000ABFA80BD032801D2002080BDFFF740FF57
:1047F000012080BD002101701020FFF7C3FDC046DD
:10480000001B00205C200020B0B50A2001F0E2FF70
:10481000094C0025182220462946FFF794FDA56083
:10482000A5716580257000F053FB04480560456064
:10483000FBF75CFCB0BDC0465C200020742000206B
:104840007047000002480021016041607047C04687
:1048500074200020F0B589B00546084600F06CFFD2
:10486000002843D00446006900283FD0284600F0C5
:1048700063FF014602AD1C2228460192FFF74DFD61
:104880002168E98062682A81A068194F65233E4645
:104890003B7089B292B24A4342435107D208002981
:1048A00000D0521C009204278740B8181D30B07009
:1048B000000A70700321304602F036F9284601994B
:1048C00002F032F9A06830700121304602F02CF974
:1048D000E06800F031FFB9B202F026F9009885B225
:1048E000206900F029FF294602F01EF909B0F0BD49
:1048F000001B002070B500F01FFF0446067802F090
:104900001FF9002832D17F200640002E2ED0E0690A
:1049100000281DD000F010FF0546052E02D1A07E14
:10492000002824D0284606F067F80646124865217C
:10493000017031461C318170090A4170032102F077
:10494000F3F81C21204602F0EFF8B1B228460BE044
:1049500009481C25857000214170652101700321E3
:1049600002F0E2F82046294602F0DEF870BD20464B
:104970002946FFF76FFF70BD001B002070B50028AF
:1049800027D00446134860C808388D4201D1761CF0
:1049900046600D43002902D005602A4605E000224A
:1049A000026042600C4B5B1C1D438A4201D0002117
:1049B0004160082E0AD30321304605F039FE01205C
:1049C000002901D181070D43C007854328463146A0
:1049D000A04770BD74200020FFFFFF7FF0B581B0BD
:1049E0000F4E01243470B11CA72047007A1C2046CA
:1049F00002F080F8054670703A1A3718F91C022048
:104A000002F078F8B8702D187619F47002F066F894
:104A10000021B171902171713071E81D01B0F0BDBC
:104A2000091F0020F0B58BB00746400708D0079754
:104A30000798C0B289B2FEF77DFF80B20BB0F0BD1F
:104A4000A52040000190A04C9E4E079710203D46A7
:104A500005408AB2002A00D1B1E0002D00D0AEE0BE
:104A6000069203910490059507E048210022304604
:104A700002F072F8012000F039F902F061F8002824
:104A8000F3D17D200001A1680D18207809283FDCB2
:104A90000728069947D0092860D100218B48029148
:104AA00002F0EEFC10E0FFF785FD482100223046C1
:104AB00002F052F8A068A84200D3F7E0FFF760FECA
:104AC00002F03EF80028F0D1804802F07DFA00287C
:104AD000E9D00198069A824200D9EDE090207C4905
:104AE00088548818029A4270481D039A921C92B208
:104AF000FFF713FC052276480299FFF724FC039880
:104B0000C01D83B283217148714A02F0CDFC40E0A0
:104B10000A28039A06990BD00B2822D16F487844B3
:104B200000F048FA35E06C48784400F043FA30E091
:104B30000198C01D814200D9BEE00D46B2705320DD
:104B40003070100A70700321304601F0EDFF6048AC
:104B5000294601F0E9FF002020701DE0002800D167
:104B6000A7E00798C0B2FEF7E5FE002811D0A0E04C
:104B7000FFF720FD48210022304601F0EDFFA0683C
:104B8000A84200D392E0FFF7FBFD01F0D9FF002817
:104B9000F0D120780028EBD10020A0712070608037
:104BA000B90600D549E7FFF705FD3806059D0498CD
:104BB00005D5089008AA474B1846114601DF002D7D
:104BC00004D178066DD40020A0712070404F0020E1
:104BD000608001F0B5FF002801D1FFF7EBFC482110
:104BE000002530462A4601F0B7FF022806D8B178E2
:104BF000727812025118C91C814208D1FFF7C0FD1A
:104C0000608821780029E4D00028E2D002E000206A
:104C10002070DCE73249794404223846FFF79CFBD8
:104C2000002826D02F49794404223846FFF794FB08
:104C3000002822D02C49794404223846FFF78CFB07
:104C4000002831D101F01CFFAA281FD101203870A3
:104C5000B81C402101F006FF7870811C184A1346E9
:104C6000114090227A54C11C194000257D54011D29
:104C700011E0FFF7B3FE01460DE0002078709020B0
:104C800038707F20C043079D054303E0852078707E
:104C9000692038700221EFB20795680700D1D5E688
:104CA000C6E66088401FC8E66088C6E61020FFF7A9
:104CB00069FB0920FFF766FB0220FFF763FBC04694
:104CC000FFFF0000001B00205C2000207C20002053
:104CD000091F0020BE9A0060F9FBFFFF13FCFFFFD5
:104CE0005C720000517200004672000070B505460B
:104CF00001F026FF002801D1FFF75CFC0C4E482193
:104D000000243046224601F027FF3078152806D8C7
:104D1000012181400748014201D0002D06D1FFF753
:104D20002FFD002801D1044600E00124204670BD7B
:104D3000001B002020702000B0B582B001ACE070F4
:104D40000120A07000256570662020700421204697
:104D500001F0EAFE032120462A4601F0FDFE02B0E2
:104D6000B0BD000010B5FFF725FC084C482100221B
:104D7000204601F0F1FE20780E2801D0FFF700FD5B
:104D800001F0DEFE0028F1D110BDC046001B00205E
:104D9000F0B581B000920446464EB14210D00F46A5
:104DA000444D0021402628463246FFF7CCFA009AAF
:104DB000402A00D3324628463946FFF7AEFA3D4E28
:104DC000B07801280ADC002825D0012860D1F01C29
:104DD000042101F023FD4021304628E0022824D0A0
:104DE000052855D13079F17809020818324C21682C
:104DF0000027884253D1206800281BD00098401F0C
:104E000085B22E480168A94201D2006885B22C48BB
:104E10000068711D2EE0F01C002704223946FFF7C0
:104E200092FA40213046A04739E022484021A0476D
:104E3000002734E0B079717909020918214801602E
:104E400001684908A8292AD801681C4801607178BE
:104E50003278120251181C4A116019491B4A0A6023
:104E60000099C91F8DB20168A94201D2006885B2BC
:104E7000F11D16482A46FFF750FA10480168491BF1
:104E800001600F480168491901602068401C2060DA
:104E90000A480068002801D0012707E002270648D9
:104EA000002101600648016004480160384601B0F5
:104EB000F0BDC046C02000200021002008210020B5
:104EC0000C2100200421002010210020091F0020B7
:104ED00003480021016003480160034801607047F6
:104EE000002100200C21002008210020F0B581B015
:104EF0002A4F3A682A4C216800291ED0002A1CD06B
:104F000000902A4D002140222846FFF71CFA052078
:104F1000A87027480168090A297000686870214B49
:104F20001868000AE8701868287119682068002954
:104F30000BD03B280DD93B260CE01A48002101601C
:104F4000396019480170216026E039280AD93926CC
:104F500009E026683968681D3246FFF7DEF9009AD5
:104F600010490DE026682068000A68712068A87161
:104F70003968E81D32461D46FFF7CFF92946009AE9
:104F80002068801B20603868801938600868401CE1
:104F9000086006484021904701B0F0BD0C21002078
:104FA00008210020002100205C200020C0200020DB
:104FB0001021002080B500290BD0064A0023136081
:104FC000054A1160054A064B1360064A1160FFF757
:104FD0008DFF80BD00210020082100200C21002031
:104FE000091F002004210020F0B581B00D460446C1
:104FF0009C201149085C03281CD101F0A1FD002868
:1050000004D068460321002201F0A6FD6E46B5706B
:1050100066203070280A707003273046394601F048
:1050200083FDA9B2204601F07FFD002230463946BB
:1050300001F092FD01B0F0BD1C21002083B0F0B55D
:105040008EB013AC0EC4002800D18EE1044613A824
:1050500008902078002800D187E10026F1430091D4
:10506000049619E000980799461AC448784401212B
:10507000FFF7BAFF761CF8D10699A94200D86FE174
:10508000481B00D16CE16D1ABE4878440121FFF73E
:10509000ABFF6D1CF8D163E1354602E06019407842
:1050A0006D1CC0B2002801D02528F7D12046294622
:1050B000FFF79AFF605D252809D16019411C002384
:1050C00020200A22059207931E46069308E06419E1
:1050D00048E102232146089A141D08941268079299
:1050E0000C4619462278641C00232D2AF9D0472A41
:1050F00018DC2F2A23DD1346303B0A2B00D388E02F
:10510000302A034600D11346069F002F00D00346E5
:105110000A2706984743B8183038069018460B46B9
:105120002146DDE7672A04DD722A1BDD732A30D1B0
:105130001DE0622A32DC482A40D1012615E0252AEA
:105140004CD02A2A21D02E2A63D121782A2960D155
:105150006278611C0123482ABDD0682ABBD0732A1B
:10516000B9D056E0682A2DD1002610220592089B5E
:105170001A1D0892CAB21F68012A44D0022A44D0DC
:10518000032A0B462146ABD047E021787329A0D0F3
:105190003FE0752A25D0782A16D03AE0632A2AD033
:1051A000642A36D1039005960898011D089100687D
:1051B0000D900A2600285CDB00215DE0582A28D1EA
:1051C000012601E0702A24D1039005960898011D5C
:1051D000089100680D90002110264DE000982018DD
:1051E0000FE0039005960898011D089100680D9046
:1051F00000210A2640E00898011D089100680D90E2
:105200000DA80121AAE007990DE03878002800D107
:1052100028E7584878440521A0E000217A5C491C21
:10522000002AFBD1491E059810281DD1002905969A
:1052300000D195E038780F2505400009012E04D0F3
:10524000002E0DD14C4E7E4401E04D4E7E44305C2C
:105250000791FFF771FD705D059EFFF76DFD0799E2
:105260007F1C491EE6D17BE038460D46FFF7BCFEA9
:1052700002E740420D90012102910790864201D938
:10528000012712E0012530460746314605F04AF96C
:10529000A84209D1304678430699491E06910799DC
:1052A00088423D46F0D900E02F460196029B002B34
:1052B00001D1069901E00698411E0020002B01D182
:1052C0001E4600E0C643002B09D0039AD2B2302A12
:1052D00006D109AA2D2313700125034601E00346D8
:1052E0000546881E0D2812D809A84019491E039AA0
:1052F000D2B203961E4605F0C7F93346012006993F
:10530000401A0399401A401C6D1C0028FBD1002B49
:1053100003D009A82D2141556D1C002F1CD00598E4
:10532000002802D01948784401E0174878440690D4
:10533000019E0798394605F0F5F8314605F078F9F1
:105340000698405C09A948553846314605F0EAF808
:105350006D1CBE420746ECD909A82946FFF744FE5A
:105360002078049E002800D096E60EB0F0BC01BC68
:1053700003B000476D6C0000416C0000D06D000070
:105380004B6C0000B26D00005B6B0000716B0000A5
:1053900081B0F0B58EB01393022900D2BDE1002890
:1053A00000D1BAE11546002A00D1B6E10C46064606
:1053B00005F05CF913A909912978002900D1ACE125
:1053C0003046671E002602E0A9194978761CC9B24A
:1053D000002901D02529F7D1BE4200D33E462946F7
:1053E0000446324605F04CF9BF1B069700D194E104
:1053F0002046A019A95DAD19252900D089E10490A6
:105400006B1C0020202105910A210891074603907A
:10541000044605E002242B4609990A1D09920F68EB
:105420001D46224629786D1C00242D29F9D04729D4
:1054300015DC2F2923DD0B46303B0A2B00D304E17A
:105440003029059C00D10C46002800D0059C0A2379
:105450004343581830382B4605941446E0E7672933
:1054600006DC622937DC482946D10121039103E09B
:1054700072291ADC682945D11021089117E02529E5
:1054800000D1CDE02A2922D02E2900D0DDE02978D4
:105490002A2900D03CE169786B1C01244829BBD043
:1054A0006829B9D07329B7D031E173292DD1099971
:1054B0000B1D0993D3B20968012B00D1BEE0022B6A
:1054C00000D1BEE0032B2B461446A9D0C1E02978B9
:1054D00073299FD01CE1632900D1A3E0642900D087
:1054E000B3E007900998011D09910068C11747189A
:1054F0004F40C10F0A2012E0582900D0A5E0012139
:10550000039105E0702903D09FE0782900D09CE04A
:1055100007900998011D0991076800211020B842E1
:105520000897029102D90124074612E00126074696
:105530000446394604F0F6FFB04209D138466043CC
:105540000799491E0791089988422646F0D900E03C
:1055500034460197029A002A01D1079901E0079881
:10556000411E0023002A01D1174600E0DF43002A34
:1055700008D00598C0B2302806D10AA82D220270A2
:10558000012603E01E4601E01E461346881E0D2834
:1055900012D80AA88019491E059AD2B205971F464B
:1055A00005F072F83B4601200799401A0599401A08
:1055B000401C761C0028FBD1002B03D00AA82D210B
:1055C0008155761C002C1CD00398002802D0594825
:1055D000784401E0564878440790019F0898214696
:1055E00004F0A0FF394605F023F80798405C0AA9AB
:1055F00088552046394604F095FF761CA74204469C
:10560000ECD9069FBE4200D33E460AA9049C204620
:10561000324605F035F8BF1B7FD02046A01916E0B2
:10562000252103E00998011D099101680498017082
:105630000699491E069170D0401C07E007903E462F
:105640000EE007900878002842D00498069F297839
:1056500060E0079000228B5C521C002BFBD1561E91
:105660000498069F089A102A27D1002EEFD0002216
:105670000792022F51D33C46079A8A5C039B002B6A
:1056800005D0012B0ED107462848784402E0074692
:10569000254878440F2313401209C35C7B70825C59
:1056A00038463A70022C38D02746A71E079A521C5B
:1056B000801C0792B242DCD318E0BE4200D33E46C3
:1056C000324604F0DDFF0498BF1B26D080190DE0A0
:1056D000069CA74200D3274620220498394604F0AE
:1056E000D3FF0498E41B18D0C01927460799B1428C
:1056F000ADD98C1BBC4200D33C4620220646214635
:1057000004F0C2FF3F1B08D0304630199FE72A2122
:105710000498069F002900D054E600200EB0F0BC8B
:1057200002BC01B00847C046F56700000D680000E4
:10573000B1680000C768000080B50449884204D3FE
:105740000349884201D200F005F880BD0000D0C0B6
:1057500000D8D0C07A460249C91C891A401A70473D
:105760005557D0C0B0B50C460546001D142104F0B5
:105770007DFF2C60B0BD0168C27D0A700168827D2A
:105780004A700168427D8A700168027DCA700168B2
:10579000C27C0A710168827C4A710168427C8A710C
:1057A0000168007CC8717047F0B587B014460646A2
:1057B00041680C980A1872603F2A0CD84020821A5F
:1057C0002046194604F046FF72690A437261316946
:1057D000014331613BE037460837314610310591CE
:1057E000403A7260801A00210691CD4301958540B0
:1057F000E9432046CC17396002977C6003900493FC
:10580000194604F01BFF2140059C62680A43626050
:10581000A8432168014321603046FFF7ACFF06989A
:1058200020606060306808303060706800280ED0FA
:10583000019D8540E943CB17029A0AC240210A1A0A
:105840000398A8430499194004F004FF03C407B067
:10585000F0BD0000F0B58DB014460A46034601685D
:10586000022A43D32648814240D15968254DA94296
:1058700001463BD1002668460660212004AD19464A
:105880002B4601F0DFF82048784420212A46FFF714
:10589000D5FB203503951D48784402901C4F7F446A
:1058A0000398067004A82121202522462B4600F0EB
:1058B000E3FF029829462246FFF7C0FB20463946FF
:1058C0002A4601F089F8761C0028E9DA114A7A4460
:1058D0002025204629462B4601F09AF80E487844A8
:1058E00029462246FFF7AAFB0DB0F0BD5A680B48C7
:1058F0007844FFF7A3FBD520C001FEF743FDC04667
:10590000550A0080D32A86A244660000586600002B
:105910001B6700000B67000021660000B7650000F0
:10592000F0B59FB01C4603920491074634480068C6
:10593000FFF702FF05463348784414213A46FFF743
:105940007DFB0020249E0594395C00290AD1401C6F
:105950001328F9D92F487844FFF770FB12200290E2
:1059600001950EE03846FEF707F8002843D00246BE
:105970002020115C14320192234878440291FFF7F1
:105980005DFB082116AF03983A4603F027FF0EADE2
:105990000498294602F000FA06AC38462946224609
:1059A00002F01AFD0A21642304932046059D2A462D
:1059B00002F0AAFE154878442946FFF73FFB30461F
:1059C000019F394605F010F8284605F015F8044601
:1059D000384605F011F86946029A0A6032182846DE
:1059E0002146049BFCF7D2FE094878443146FFF774
:1059F00025FB1FB0F0BDD520C001FEF7C3FCC0469B
:105A0000E01B0020D8650000D3650000C8650000D9
:105A1000B9650000D8650000F0B593B01646012ABC
:105A200029DB0D4602460020295C002903D1401CD9
:105A3000B042F9DB1FE041277B4310487844C1188E
:105A400002AC204601923A4604F016FEFFF78AF9AE
:105A5000684606602E26304621463A462B4600F020
:105A60003BFFFFF77FF968460760304601990A4619
:105A7000234600F01FFF13B0F0BDC046BD65000017
:105A8000F0B593B016460C46019002AD1349794427
:105A90004122284604F0F0FD0127284621463A46D7
:105AA0003B46FFF7B9FF611C1F240023284622460E
:105AB000FFF7B2FF0323284631463A46FFF7ACFF13
:105AC000711C022328462246FFF7A6FF691C2022EC
:105AD000019804F0D1FD13B0F0BDC046726600001D
