:02000004C0D06A
:1000000010B5044662B603F0C3FC002C0DD00120ED
:1000100000022168814205D1606801280AD1A068E8
:10002000002803D103F0C4FB02E0002003F0E0FB52
:10003000002010BD204603F055FC0000F0B582B052
:1000400007460192921E0024012A23DB254E7E449E
:1000500000973B460F5DBF08F75D1F700F197D7855
:100060002D09085D8007800E4019305C5870B87803
:1000700080097D782D07AD0E2818305C9870B8780F
:100080003F250540705DD8701B1DE41C9442E1DBE8
:10009000009F00E03B46019A94421DDA085D80080B
:1000A000114D7D44285C1870085D8007860E501E37
:1000B000844203D1A85D58703D2109E008194178B8
:1000C00009093143695C597040780007800E295C4A
:1000D0003D20D87099701B1D00201870581CC01B43
:1000E00002B0F0BD8E9A00003A9A0000F0B589B0D7
:1000F00008AC55202070079401206946886007A845
:10010000486000260E607248784440219F233246A2
:1001100003F09CFC002800D1D2E02078012800D018
:10012000CEE009F0F3F8304609F060F9D021654DD2
:100130006848784403916850C4270323EB55C022D4
:10014000654979440492A950CC2106916E505E48CD
:1001500046600370044605F085FC0420059005F018
:1001600009FD606003F0A4FE03F0A4FEBE242E533C
:10017000059805F0FFFC54494860002832D09728C4
:1001800030D00498285800282CD0285BE95D80B234
:10019000884227D205F0BAFC002823D105F02CFCB8
:1001A000AA2803D105F052FCAA281BD1049828588C
:1001B000295B4901401806996958002902D08847EF
:1001C000002808D0012804D104982858295B490147
:1001D000401803F00FF9285B401C28530499695814
:1001E0000029D3D1EE5D285B0590384848210022D4
:1001F00005F098FC03F0FCFD0598B0423CD2049E4B
:10020000A859002829D0285BE95D80B2884224D211
:1002100005F07CFC002820D105F0EEFBAA2803D1D4
:1002200005F014FCAA2818D1A859295B49014018E7
:1002300006996958002902D08847002807D001286C
:1002400003D1A859295B4901401803F0D3F8285B72
:10025000401C2853A9590029D6D1E85D05903E4697
:100260002F5B48210022194805F05CFC03F0C0FD1B
:10027000059887423746C2D303F0D4FC134C48217B
:100280000022204605F04EFC03F0CCFC039E4821E2
:100290000022204605F046FC03F0AAFD05F036FCDE
:1002A000002802D0A8590028F1D109F04BF803F03A
:1002B000FFFD03F0FFFD05484821002205F032FC58
:1002C00009B0F0BD5C190020A41A00205C1A0020BF
:1002D00034B60000A7010000F2990000044908406C
:1002E000884203D1D020034900220A5000207047E1
:1002F000030000805C1900200C48784404F06AFB7D
:10030000027809490420C87006238B7001234B70C2
:10031000002A00D113460E330B70019908600920A2
:10032000000303F06EFBC046611E002002B4000013
:10033000F0B5A1B017460E4604461578444800783B
:10034000002801D102F0FCFD681EC0B20A2872D25A
:10035000022C6BD20394012E68D8781C2799019146
:10036000269904910FA92A46C37884782402E318B9
:10037000447807783F023C1924041B1908C1001D6A
:10038000521EF1D1701E414241419524314E3155EA
:1003900004F00AF8305D002801D030467530694617
:1003A000086021240FA919AF20462A463B4605F0D4
:1003B0002FFB2022029205AE20463946334605F037
:1003C00093FA03F0F1FF01232046224D29463246DD
:1003D00005F09AFA2821304609F01CF938460299AE
:1003E00009F018F903F0E0FF1B4803682C464C3471
:1003F0001A4A2846214601F09DFD039800281ED088
:100400006846046016482B21164A7A44282304F0D3
:100410000DF9154979440020024608F0BBFB049A07
:10042000106810210143116021B0F0BDD520C0013A
:10043000803003F0E6FAD520C00103F0E2FA02F0C2
:1004400027FA019908600920000303F0DAFAC04690
:100450009C180020041800203C1B0020B81C002021
:10046000261C00208A97000064A30000A4B09025F9
:100470003A49485D012686434E55002B60D0174609
:1004800012780B2A5CD21C4611461C31581E80B2D1
:10049000814255D8501C0490781C059008921CAAE3
:1004A0002020079005980391079B05F0CBF92120A8
:1004B00070432A490E180696603630460599089A08
:1004C00009F09CF808980799315400200499705459
:1004D000791806984C30142209F090F808983E18C4
:1004E000307E6C21069A50541D480068C068002870
:1004F0000CD00399795CF27E12025118B27E737EA1
:100500001B029A1812048918884219D12120154912
:100510007944412209AF3B4605F0D6F91D3C0898C5
:10052000201A80B269461D36079A44C1086001242A
:1005300003221CAB3846214605F00EFA002803D1F1
:10054000D520C00103F05DFA04480146405D08185B
:100550008E2144540920000303F053FA04180020AC
:100560003C1B00208B960000F0B591B01D46144650
:100570000F460646802800D1A0E0002E00D0F4E00F
:10058000002D00D1EDE07F490878002802D002F06C
:10059000D7FC7C490220087020787B4A10700690B6
:1005A000401EC0B20A2800D3DBE06B1E98B20021C7
:1005B00004280496039701D30F4600E00127151D78
:1005C000641D0320C0430890F80700D0C9E00898D4
:1005D000201807931B1F9AB205922646042A01D3BE
:1005E000002700E00127C27884782402A21844780A
:1005F0000078000200190004101801C53446341DAB
:10060000491C06988142DFD30598032800D8A8E04A
:10061000089BE018C1788278120251184078E25C99
:100620001202101800040818574FF864012631020E
:10063000564D284605F016F90021684601604160D4
:10064000554A7A441A232846069105F0DBF8FD6CDA
:1006500037460A210E467E43304608F021FFAE425F
:1006600001D8B842F4D0002F069B17D0089500257A
:100670000898394608F014FF0A26314608F096FF1C
:1006800030200843E9B209AA50543846314608F0F0
:1006900007FF6D1C092F0746EAD8EBB2079D083DFE
:1006A00009AA0699D154684601604160374805F0AF
:1006B000A9F8374805F0BAF8049E039F002F54D1DB
:1006C000802E03D12F480078022852D1ADB22E4F90
:1006D000F86CA84245D300266846066046602B4861
:1006E000314622462B4605F08DF868460660466086
:1006F0002748314622462B4605F084F8F86C401B0B
:10070000F8643BD116980890202568462C3707607E
:1007100045601E480127002639462246334605F02B
:1007200071F868464560224609AC046018483946AD
:10073000334605F067F86846046016486421174A96
:100740007A442B4603F072FF15497944304632460D
:1007500008F020FA089A106810210143116011B0C6
:10076000F0BDD520C00103F04CF96B20000203F06E
:1007700048F9D520C001FB3803F043F909200003F4
:1007800003F03FF90018002004180020B81C0020D6
:10079000DC180020261C00209A950000B994000067
:1007A000FEA00000F0B583B00843002850D11E46DB
:1007B00014462A480078002801D002F0C1FB002E20
:1007C00042D02078264A10700290411EC9B20A29F0
:1007D0003AD208980190121D2134731E1F21C9437B
:1007E00000269FB2032F2FD96718FD78B878000232
:1007F00040197D783F783F027D192D04401901C2D0
:10080000241D761C1B1F02988642EAD398B23F280B
:100810001AD96118124D28462C302026324608F08D
:10082000EDFE4C3528462146324608F0E7FE0D49DC
:1008300079440020024608F0ADF9019A10681021B1
:100840000143116003B0F0BDD520C00103F0D9F819
:10085000D520C001803003F0D4F8C0460018002035
:1008600004180020FCA00000F0B583B01D4614461B
:10087000064680283BD0002E65D10191002D6CD01A
:10088000384F3878002801D002F05AFB0296012038
:100890003870207834490870421ED2B20A2A5CD2DD
:1008A000091D6D1E641C0022ABB2032B55D9E378E1
:1008B000A7783F02FB18677826783602F6193604C7
:1008C0009B1908C1241D521C2D1F8242ECD32748BE
:1008D0000021817726480170684601602548264935
:1008E000264A284B7B4401F05BF8029E01990029BF
:1008F00029D1802E03D11B480078012827D11D481B
:100900000078002823D01E480068007C801F4342E6
:100910004341AAB21748214601F0B5F8012806DC88
:100920000AD0002819D10920000303F06AF8022830
:1009300012D1002002F0A4F90898016810220A439D
:10094000026003B0F0BD6B20000203F05AF8D5201E
:10095000C001FB3803F055F80328D520C00103F08F
:1009600050F8C0460018002004180020401B00204A
:10097000601E0020A0180020B81C0020DC180020F9
:100980003C1B002025200000F0B5A1B016460C4607
:100990000746157802F0D4FA681EC0B20A285CD265
:1009A000022F55D2002C53D10397701C2799019127
:1009B000269904910FA92A46C37884782402E31863
:1009C000447806783602341924041B1908C1001D26
:1009D000521EF1D103F0E8FC0FA819AE29463246A9
:1009E00004F086F82E272022029205AC38463146C4
:1009F000234604F079FF03F0D7FC1E4D012338464F
:100A00002946224604F080FF2821204608F002FEF5
:100A10003046029908F0FEFD03F0C6FC039800285A
:100A20001FD009356846056013486421134A7A448B
:100A3000202303F0FBFD124979440020024608F010
:100A4000A9F8049A106810210143116021B0F0BD8B
:100A5000D520C001803002F0D4FFD520C00102F0C3
:100A6000D0FF02F05FFA019908600920000302F04C
:100A7000C8FFC04604180020261C0020C9910000B1
:100A80005CA2000082B01E46154604462F4800783E
:100A9000002801D002F054FA601E052848D25420E4
:100AA000B04249D1002C019408D10020295C0029D2
:100AB00004D1401C1328F9D902261CE0012CFBD0DC
:100AC0004120C7430026224CA0198E21405C0028FB
:100AD00007D0E0198E301422294608F09FFD002827
:100AE00009D02137761C022EEED3002F03D1D5205A
:100AF000C00102F086FF174C2046A430294614316D
:100B0000202208F07BFD019F002F06D02046C43034
:100B100034352022294608F071FDE5202754E420D1
:100B200026540D48012101700920000302F069FFDD
:100B3000002C05D13420B3E76720000202F061FFEA
:100B4000D520C001803002F05CFFC04600180020B4
:100B500004180020401B00209D180020F0B5C1B0F3
:100B60001E4614460F9107461578CB48007800289A
:100B700001D002F0E5F9681EC0B20A2800D3A6E051
:100B80000121032F12970E9111960BDC0023012FE8
:100B90001DD0022F1A460BD0032F00D0AAE221222B
:100BA0000B4615E0381F022800D3A3E221220B4692
:100BB000052F01D06D2000E0A120A9004018801869
:100BC000B04200D09BE20020012114900CE01A46B4
:100BD0000E465000A900081889300021119FB84224
:100BE0001496084600D08AE20B900C911093139251
:100BF0000F98002800D07DE246980D90A748057018
:100C0000001D611C012604952A463346A619F77873
:100C1000B5782D02ED197678097809028919090449
:100C2000691802C01B1DDEB2A119521EEED1119827
:100C3000821B204608F0E2FC129A501F41424141BB
:100C40008020974D0F902954052A139E0FD1A51986
:100C500029466C319248A130202208F0CFFC8C3517
:100C60008F48C130142229468D4D08F0C7FC109FD3
:100C7000E01900221190815C00290AD1521C132A2C
:100C8000F9D9002F0E990AD0207801281FD1002110
:100C900005E002F0E9F9002819D001217940149803
:100CA00000281CD00E91F01921183431A019C01958
:100CB000343000228B5C002B0DD1521C132AF9D941
:100CC0000E9800280BD15520205C012807D0D52094
:100CD000C00102F096FE02F0C7F90028F7D003F039
:100CE00063FB0021002F0A4600D02278684641604D
:100CF0008560002F01D1394601E021463531016080
:100D000011990B46143367480E9304F023F8149896
:100D1000002813D0A019C51903F046FB0020002FAE
:100D2000024601D05521625C3435F84B20336946C8
:100D300048608B60002F0CD138460CE0A11934318B
:100D400028462030202208F059FC54203043064623
:100D50000DE020468A3008602B461433EC482946C3
:100D600003F0F8FF4820304336182036E74D294677
:100D7000403128AD284603F043FE0B206946086049
:100D8000002728463A463B4603F05CFE04206946AD
:100D900008601298052801D00C9A00E002221298EF
:100DA0000528129700D00B9F28463B4603F04AFEC9
:100DB0000C96F0B2261871780B91215CF278B3781A
:100DC0001F27284607956D462F601B029A180902B7
:100DD0000B9BC91809045218129B03F033FE70795B
:100DE0003179F279B3796D460B972F601B029A180F
:100DF0000902081800041218079D2846129B03F0E8
:100E000021FE707A0A90307A0990F07A0890B07AD0
:100E10000690707B0590327BF77BB17B3F206B4661
:100E2000129018600802C0191102059A8918090465
:100E300042180698000208994018099909020A9B6D
:100E4000C91809044318284603F0FCFD149800282B
:100E50002AD0707C0A90307C0990F07C0890B57C98
:100E6000727D377DF07DB67D6946129B0B60310245
:100E700008183902891809044218280208994018EC
:100E8000099909020A9BC9180904431828A803F004
:100E9000D9FD182011E0C0460018002004180020D9
:100EA000401B0020B81C002068461299016028A849
:100EB0000022134603F0C6FD10200C990818C0B29A
:100EC00026187178205CF278B3786D460B9F2F60FE
:100ED0001B029A18000240180004121828AF0025BF
:100EE00038462B4603F0AEFD707912903179F279D5
:100EF000B379162668460660180280180902129A0D
:100F000089180904421838462B4603F09BFD0F98B8
:100F10007E4E305C00281ED0012739027C4804F048
:100F2000A1FC6846056045603246C132142378480A
:100F3000294604F067FC20236846314660310AC028
:100F40003246A1327248394604F05CFC6020315CC4
:100F500003220A4032541498002842D003F024FAA5
:100F60006D482B30694608601398261834363718B8
:100F70003A463C3225468C3511980E992B4603F0A3
:100F8000F9FD03F011FA64485D3069460860109875
:100F900030180146143144373A462B4603F0EAFD37
:100FA000482013990843081820182321415C222265
:100FB000825C120251182122825C2023C05C000254
:100FC000801800040B182B215A4A7A44524803F027
:100FD0002DFB594979440020024607F0DBFD0D9CAA
:100FE00082E003F0E1F94848001D39AF12970499F7
:100FF0003A4603F07DFD2E26202210922FAD30467A
:1010000039462B4604F070FC03F0CEF915AF0123EE
:10101000304639462A4604F077FC282114912846A8
:1010200008F0F8FA1298109E314608F0F3FA139877
:10103000251803F0B9F929463431093738460F46E7
:10104000324608F0EBFA129003F0AEF931486946E7
:1010500008605C3523468C3311980E992A4603F0BC
:1010600089FD5420139908432018C179827912020E
:101070005118427900790002801800040B182648A4
:101080006430264A7A44149903F0D0FA1298002862
:1010900017D01E4D2846813020243946224608F0BC
:1010A000ADFA684607601C4864211F4A7A4423460B
:1010B00003F0BCFA0F98285C00280BD01C49794437
:1010C0000AE00F981149085C00280D9C06D01549CC
:1010D000794405E0154979440D9C01E010497944B3
:1010E0000020024607F056FD2068102101432160D0
:1010F00041B0F0BDD520C001803002F082FC6720F5
:10110000000202F07EFCC04604180020401B0020B4
:10111000B81C0020DC180020261C00206A9100006A
:10112000F29E0000449F00004B8B0000DA9E0000FE
:101130002E9F000024920000489E0000F0B5A9B048
:1011400015460F46064614783C490978002903D015
:10115000039301F0F5FE039B611EC9B20A295FD219
:101160003743002F60D1A0002130984261D12E98E2
:10117000039033480470001D691C01220294234629
:10118000AF18FE78BC782402A4197E780978090289
:1011900089190904611802C0111DCAB2A9185B1E81
:1011A000EED12848203020242246019408F026FA67
:1011B00003F0FAF82248001D21AF02993A4603F0E5
:1011C00097FC2E2604AD3046394622462B4604F0C5
:1011D0008BFB03F0E9F80EAC0123304621462A468A
:1011E00004F092FB2821284608F014FA3846019DA5
:1011F000294608F00FFA03F0D7F8093411482146C0
:101200002A4608F0F7F9104979440020024607F011
:10121000C1FC039A106810210143116029B0F0BD90
:10122000D520C00102F0EDFBD520C001803002F0D6
:10123000E8FB6720000202F0E4FBC0460018002033
:1012400004180020401B0020049F0000F0B581B06E
:101250000091054600240E4E7E44304603F0BAFB52
:1012600007460C2108F024FC02463846294608F0BF
:10127000AFFB002805D0641C0D36082CEDD90020EA
:1012800003E0387B00990870012001B0F0BDC04632
:10129000A6890000F0B583B00C46FF210A4604324F
:1012A000904212DC0231884236D0812149008842C6
:1012B00055D0904200D0F8E0606800680121A17725
:1012C0007B49A1836330E060EFE04126B2009042A9
:1012D00052D00631884269D083214900884200D02B
:1012E000E3E0207BA568012800D1B9E0002800D008
:1012F000DBE020696F497944072208F07BF92D2053
:101300002A5C2878A16964236E460AC62B46012808
:1013100000D1BAE02233B9E0A5680026664F7F44C9
:10132000386803F057FB017842781202511882782E
:10133000C078000280180004401821690A784B78B0
:101340001B029A188B78C9780902C91809048918F0
:1013500088423FD03F1D761C042EE1D33BE0A068BD
:101360000178032934D02169042931D1E168401C76
:10137000202208F043F996E0E168002914D0A5681E
:1013800028462130143108F0EDFA29788A1E022A05
:1013900004D3012900D181E0002905D12D3529464A
:1013A000FFF754FF00287ED103207DE0A568E068A8
:1013B00043497944052208F01DF92878811E022945
:1013C00033D3012837D860693E497944072230E099
:1013D000002069E02E706068006842300021425CA5
:1013E000002A03D1491C1F29F9D902E028780328D3
:1013F00019D1042E17D0287830497944095C6269E4
:101400008A4210D1032828D16D1C2021284608F0DB
:10141000EBF86068016862200A5CA81A203042314B
:1014200008F0ECF819E0002018E0606926497944DA
:10143000052208F0DFF86569284608F09BFA2021AC
:10144000295428180021C1717321817174224271BD
:1014500065220271C170817046700120207724E0FE
:1014600020691A497944092208F0C4F8A06918498A
:1014700079440A2208F0BEF8A0692235294608F00E
:1014800007FA2020012121540FE02133681C202578
:10149000294607F0BDF90120605506E0E0682021EB
:1014A000405C2D2168540120207503B0F0BDC0467A
:1014B0000202000092890000CA8A000079880000B8
:1014C000C5880000B2880000558800003C890000F3
:1014D00020880000F0B583B001910290002B20D04D
:1014E0001C4615460027284603F074FA06460C21D0
:1014F00008F0DEFA02463046029908F069FA002840
:101500000BD10C360C21304608F0D2FA0246304698
:10151000019908F05DFA002806D018357F1CA74213
:10152000E1D3002003B0F0BD0120FBE707480178BC
:101530000120002906D0E521054A515C042902D882
:10154000032900D0704700207047C0469D18002036
:10155000401B0020F0B583B00C46FF210A46043240
:1015600090421DDC0231884248D0812149008842E6
:1015700072D0904200D029E1A0680178012900D101
:10158000BEE0002900D021E1616809680122A2774C
:101590002277421C16306061A2616331E16015E17F
:1015A0004126B200904262D00631884200D18CE0E0
:1015B00083214900884200D008E1207BA5680128EA
:1015C00000D1A8E0002800D000E1206982497944D8
:1015D000072208F00FF8284616300021425CFF2A47
:1015E00000D0C3E0491C1F29F8D9A069804979447B
:1015F0000B2207F0FFFFA0693635A3E06068A568FD
:10160000006842300021425C002A75D1491C202923
:10161000F9D30026714F7F44386803F0DBF9017875
:101620004278120251188278C078000280180004B3
:10163000401821690A784B781B029A188B78C97870
:101640000902C91809048918884200D188E03F1DA1
:10165000761C022EE0D384E02169A068242975D08D
:1016600004297AD1E168401C0C31142271E0E16850
:10167000002943D0A5684F2000222A54284636303E
:10168000143108F06FF9E0682021405C4E21685465
:10169000287801285FD1216900295CD02E464F3679
:1016A0000120307042351431284608F05BF9E068BB
:1016B0002169143014314A4A7A440923FFF70AFF9A
:1016C000002848D00220307045E0E0684549794460
:1016D000052207F08FFF60690021C17165218171CA
:1016E000762141716F2101717221C1707021817069
:1016F00041700670012037E0002035E003202DE026
:1017000061680968401C0122A277324AA2836331D2
:10171000E16020615AE04F20295C2069002931D026
:101720002E464F3630497944092207F063FFA069FD
:101730003178022943D12D4979440A2207F05AFF12
:10174000A0694335294608F0A3F83CE0E16816306B
:10175000202207F053FF012000E00020207535E033
:101760002E70B01E411E884120772FE04E216A5C0A
:10177000A16964236E460AC6363520212B4607F040
:1017800047F820E00021C171732181714171652109
:1017900001717221C1706421817041700670A0696D
:1017A00030210170A06978214170094803682068E0
:1017B0000268681CA169891C00F0DCFB03E042356B
:1017C000294608F0CFF820200121215403B0F0BDB4
:1017D0003C1B002002020000BA860000B287000015
:1017E000E2850000A98500007A8600005885000087
:1017F00086870000074800780021002808D0E520EF
:10180000054A125C0120032A01D0052A00D1704745
:10181000084670479D180020401B0020F0B581B09D
:101820000C46FF210A460432904215DC0231884200
:1018300031D08121490088425FD0904200D0A1E0A0
:101840006068A1680068491C0122A2774F4AA28300
:101850006330E060216195E04122920090426AD0BD
:101860000631884254D083214900884200D089E063
:10187000207BA568022861D0012876D0002800D0FE
:1018800080E02069424979440E2207F0B3FEA16945
:101890003D48633071E06068A5680068423000210F
:1018A000425C002A3FD1491C2029F9D30020394E3F
:1018B0007E44012866D007468000305803F08AF83D
:1018C00001784278120251188278C078000280189C
:1018D000000441182069027843781B029A18837823
:1018E000C0780002C0180004821801209142E0D1A3
:1018F0002F706069442814D044E02169A06824292D
:1019000014D004293ED1E168401C0C31142210E0AF
:10191000E068214979440A2207F06CFE60690021E1
:101920000170012000E0002020772BE0E1681530F5
:10193000202207F063FE0120207523E020690021AA
:10194000C17144218171492141716E21017165216B
:10195000C1706B2181706F21417054210170A169A8
:101960001535284603F01CFB09E020690B49794432
:101970000D2207F03FFEA169681C03F021FB202027
:101980000121215401B0F0BDDC1800200203000049
:1019900006850000248500006C8400002E84000071
:1019A000F0B581B01D4616460C460746302107F0BB
:1019B0001BFE7E637C600698B8633D63012038702F
:1019C0000102204603F04EFF01B0F0BD10B584B017
:1019D000826A002A1ED0436A197803AC2170521E15
:1019E0005B1C43628262427C002A05D0C268521CA2
:1019F000C260827C002A0AD1406800216A461160D8
:101A0000516003AC0123224603F0FCFE2178084616
:101A100004B010BD012001F0F4FFB0B582B005465E
:101A2000806A90422CD31446002905D06A6A084681
:101A30001146224607F0E2FD687C002809D0A87C08
:101A4000002806D0686A00196862A86A001BA862AC
:101A500011E06A6A686800216B4619605960234684
:101A600003F0D0FE686A00196862A86A001BA862C9
:101A7000687C002802D0E8680019E86002B0B0BDB8
:101A8000012001F0BEFFF0B58DB0009316460F4661
:101A9000054601AC204607F0E1FEA085000407D012
:101AA00001A8002181850B9804F058F803240BE06D
:101AB00001A804F053F80B906F62AE620098E862E0
:101AC000284600F012F8044604F03CF801A98842C8
:101AD00002D10B9804F042F801A8808D002802D1B1
:101AE00020460DB0F0BD01F08CFFF0B585B0044686
:101AF0000546103508300290264618363AE1A06AAD
:101B0000002804D13EE1A06A002800D13CE1617CBC
:101B1000002922D0216B002907D0204688470028C1
:101B200003D0012800D125E133E1207803270628DE
:101B30004FDC032875DC012800D1B3E0022802D075
:101B4000032800D02AE12878002800D029E1029853
:101B50000068212800D294E023E1002704E0206AF5
:101B6000052800D119E1A06A002800D116E120461D
:101B7000FFF72CFF216A4A1C226261180876216A4D
:101B800003AA304600F03BF90028E8D003A800780B
:101B90000327002800D101E1216A6846056004ABF3
:101BA0003046029A00F04DF9002800D1F6E00020FE
:101BB00004990029014606D1616A491E6162A16A41
:101BC000491CA16201212062E060A17401206074BF
:101BD000A0E709284CDC072874D008284CD0092835
:101BE00000D0DBE02878002800D0DAE00298006816
:101BF000052800D3D5E0E16888420CD9401AA26AD2
:101C0000824200D30246606B411878312046FFF7CC
:101C100004FFA068E168814200D0ABE0616B7C22E8
:101C2000A2E004286AD0052800D182E0062800D06E
:101C3000B4E02878002800D0B3E0029800681528A6
:101C400000D3AEE0E16888420CD9401AA26A824211
:101C500000D30246606B411863312046FFF7DDFE7A
:101C6000A068E168814200D084E0616B77227BE06C
:101C70000A38022800D391E02878002800D090E0AC
:101C8000A068E16888420AD9401AA26A824200D359
:101C9000024600212046FFF7C0FEA068E1688142AD
:101CA00068D162E0287800287BD000206074022090
:101CB0002070A06860612C20205CC0075AD10320EE
:101CC000207057E0287800286BD1029800682128FE
:101CD00067D2E16888420CD9401AA26A824200D3D6
:101CE0000246606B411842312046FFF796FEA0681D
:101CF000E16881423ED1616B622235E0287800289C
:101D00004FD10298006821284BD2E26890420BD94B
:101D1000616B8918801AA26A824200D3024620466B
:101D2000FFF77BFEA068E268824223D1616B20222C
:101D30001AE02878002834D102980068212830D28F
:101D4000E16888420CD9401AA26A824200D3024656
:101D5000606B411821312046FFF75FFEA068E16803
:101D6000814207D1616B4122885400206074207841
:101D7000401C207020780227092800D1C3E60C28D7
:101D80000CD0BCE6002709E0606B7C2100224254A5
:101D900004E0022801D1012700E00327384605B0FE
:101DA000F0BD012001F02DFEB0B58CB004466D46AB
:101DB000284607F053FDA885000407D06846002197
:101DC00081850A9803F0CAFE032407E0684603F001
:101DD000C5FE0A902046FFF788FE044603F0B2FED7
:101DE0006946884202D10A9803F0B8FE6846808DA1
:101DF000002802D120460CB0B0BD01F002FE10B5A3
:101E00000078C308172B19D38409022C07D803467E
:101E1000B63B8B4209D880082F280BD20EE01F2B2F
:101E20000CD30346F63B8B4201D9002010BD80083D
:101E30003F2803D300201070012010BD0120107036
:101E400010BD70B5017849B2049C002904DB002064
:101E500018600121116009E0C9B2CD08162D08D81B
:101E60000121196000788038106000202070084639
:101E700070BD8E09022E0FD8B6391960002121706D
:101E80000378B92B11DCB82B3CD0B92BEFD181787A
:101E90004078000240183EE01E2D14D80121196040
:101EA0000078C03810602170E1E7BA2B2CD0BB2B32
:101EB000DDD14178090683781B045918C3781B02C9
:101EC000C918007926E0F6391960012323700478D7
:101ED0000021F92C08DCF82C20D0F92CC7D181780E
:101EE00040780002401822E0FA2C19D0FB2CBED119
:101EF00041780906847824046118C47824020919F9
:101F0000007913E0407806E04178090483781B02E9
:101F10005918C078081810600121A8E7407806E039
:101F200041780904847824026118C0780818106088
:101F300019469CE7F0B58DB004931546039107460A
:101F400001242102104603F08DFC202069464860E0
:101F500005AE0E6009374023284621463A4603F075
:101F600051FC0C36304603992A46049B00F002F8D7
:101F70000DB0F0BDF0B593B0039204910546DB6857
:101F8000012118460591884300261E28304609D1B4
:101F900006AF3321274A7A44384602F047FB3846D9
:101FA00007F0E8FC06A902900818234F7F44A95DBA
:101FB0000F240A092140795C4170B95C0170801CD2
:101FC000761C142EF3D105980102039E304603F0CF
:101FD00049FC20206946486006AA0A60029B283313
:101FE0003046059903F00EFC0020049E0246059938
:101FF0000A404308E95C002A01D0214000E00909B9
:10200000092901D8795C0BE006AEF35C9200042646
:1020100056400822B240795C1A4200D02039049E12
:102020003154401C2828E1D128200021315413B01C
:10203000F0BDC046137E0000027E0000F0B581B006
:102040000E46054601290AD12878302807D1022BEF
:102050002DD30020507030201070012064E0069CC9
:10206000B44221D2B01C984221D80092301B09D032
:1020700029460246009B0F781F70491C521E5B1CAC
:10208000002AF8D1002C0146009F02D02E2139549D
:10209000411CB0422DD27A182B1800201D5C15541B
:1020A000401C8442FAD122E0E01C984201D9002071
:1020B0003AE0A71B2E20507030201070002F0BD05C
:1020C0000092901C3022394607F09CFAA01C811B1C
:1020D0007F1EFDD1009F01E002211746002E08D08F
:1020E0007A1800202B5C1354401C8642FAD10A183F
:1020F00000E00A460024BC540120914214D27D5CC9
:10210000002C0B4600D02346302D00D00023491C64
:102110008A421C46F3D1002B06D00021F9545A1EE6
:10212000BB5C2E2B00D1B95401B0F0BD70B5144684
:102130000D460646202107F057FA3561746170BDDF
:1021400070B514460D460646182107F04DFAF560A5
:10215000346170BD80B5202107F046FA80BD70B5AE
:1021600014460D460646182107F03EFAF560346124
:1021700070BDF0B581B01C4615460E4607462021BD
:1021800007F032FA0698FE603D617C61B86101B0EB
:10219000F0BDF0B581B01C4615460E460746242119
:1021A00007F022FA0798F8610698B8617C613D61F2
:1021B0003E7301B0F0BD0000F0B587B00691054652
:1021C0003A48002484773B4E7E44706802F002FC5B
:1021D000002851D00746049401961421002D33D0D5
:1021E0004C4330190590067A002E2CD003910295AD
:1021F000002506980469386802F0ECFB0178427803
:10220000120251188278C078000280180004401829
:102210002178627812025118A278E3781B029A188A
:1022200012045118814208D10598006800280DD089
:1022300002F0D0FB8047002808D13F1D6D1CB5423D
:10224000D7D3029D0AE0019E04980AE0059909315E
:10225000164807F087FB012181770025019E04982D
:102260000399401C0490C4B261437018406802F0A6
:10227000B1FB07460028B0D1002D06D00C480078ED
:10228000002802D000200FE00025FF21023128465F
:10229000069A00F011F8002806D00228F4D0012890
:1022A000F3D101200149887707B0F0BD401B002021
:1022B0009C180020B07C0000F0B59FB015460E467B
:1022C00007466F481D906F481E90002F06D015AC32
:1022D000142220463946FDF7B1FE04E06A4CA07F87
:1022E000002800D1A3E0FF210B46043300229E42C8
:1022F0000BDC08460230864200D19AE08120400083
:1023000086420FD09E420DD0B4E04120800086422C
:1023100008D008460630864204D08320400086421A
:1023200000D0A7E0009301910297039605921DA8A3
:1023300068601EA8286054484430082104956850FD
:10234000524F7F44787A002816D03946093120460A
:1023500007F0C4FA002822D00126F5B21420684301
:102360003918487A002807D00931204607F0B6FA14
:10237000761C0028F1D113E0049D1495039E13965A
:10238000129406AF384607F069FAB885000416D0F3
:1023900006A800218185109803F0E0FB16E00025D7
:1023A000142068433818006902F014FB0246039EAB
:1023B0003046049D29469047059A029F14E006A8DE
:1023C00003F0CCFB109012A803F058FB029F03F01F
:1023D000B9FB06A9884202D1109803F0BFFB06A8FA
:1023E000808D002849D1059A0199009B9E420ADC04
:1023F00002318E422ED081204000864211D09E4272
:1024000038D1A87F0EE041208000864209D00631F5
:102410008E422BD08320400086422BD12020285C86
:1024200025E0287D02210143032922D022E0002259
:1024300020E0009301910297039605926020E860E6
:102440001DA868601EA828600F4801464431A96095
:10245000182173E7287F02280BD001280AD1002F0A
:1024600007D00948214607F07DFA02E0287F0128BD
:1024700000D1012210461FB0F0BD01F0C2FAC046E3
:10248000DC180020B81C0020401B0020367B000018
:1024900010B58AB02820694608600E490B4664339F
:1024A00002AC64222046FFF764FE0C4800782D2819
:1024B00002D00948633000E00020FF2106312246A7
:1024C000FFF7FAFE002802D1002004F0ABF90AB0B1
:1024D00010BDC046261C0020DC180020401B002038
:1024E00010B58CB042200D49095C28206B4658601D
:1024F0000B4A10466430186003AC64232046FFF793
:1025000048FE8320410000202246FFF7D5FE002828
:1025100002D1002004F086F90CB010BD401B002051
:10252000261C002010B543221E498B5C002806D0D3
:102530004220012B0CD100230B548B540DE0012BB6
:102540000ED100208854FFF7CBFF06F05DFA10BDD6
:102550000B5C002B1ED05A1E0A54FFF7C1FF16E079
:1025600042200B5C41240C5D641E9C420DDD5A1C14
:102570000A54FFF7B5FF06F047FA0B480021416007
:102580000078401E06F08EFC10BD0120885406F035
:1025900035FA10BD00230B540120885406F034FA9C
:1025A00010BDC046401B00205C19002010B5044639
:1025B000FFF76EFF204606F04BFD10BD80B50120F1
:1025C000FFF7B0FF80BD80B50020FFF7ABFF80BDF7
:1025D00010B5044604485D30322100F0F5FA20467B
:1025E00006F036FD10BDC046261C002080B5002038
:1025F00004F0A4F880BD80B5002004F013F980BD7C
:1026000080B54221054A00205054432101235354F0
:1026100003497944024606F0BDFA80BD401B002004
:10262000EA790000F0B5FFB090B0044600690028D8
:1026300061D0A6683278501EC3B20020092B5BD847
:102640009300257B6D1E9D4256D10391701C17A9E6
:102650001346C578867836027519467807783F02A2
:10266000BE193604AD1920C1001D5B1EF1D100203A
:1026700069460860212517AE04AF284631463B461F
:1026800003F0C6F934210291304606F0ADFF202256
:1026900028463946334603F027F94C210191384644
:1026A00006F0A2FF012328463946324603F02CF9F2
:1026B0003046029906F098FF24AA38463146039B1B
:1026C000FFF738FC3846019906F08EFF2469207820
:1026D0006178090208180A49884200D1A41C3046D2
:1026E00007F048F9421C3046214606F097FF0146A4
:1026F0004042484100E000207FB010B0F0BDC0462D
:1027000030780000F0B589B00491054604460E34D7
:102710001E262046314606F067FF287B002720282A
:102720002CD80396049E2979286805AA08AB06F0E0
:10273000B3F8002822D0687B002813D00A21304645
:1027400007F0B6F9C6B205AF38460499324606F02E
:1027500051FF2020B855B8190021417008A8122255
:10276000027001E008A80278297BA8686B461C600B
:10277000039C5C6005AB06F04BF80127384609B0B6
:10278000F0BD0000F0B5ADB00D46044609AE8F2196
:10279000304606F029FFA1692B22304607F052F996
:1027A0002A20315C0020002938D1217B202935D80E
:1027B000217D082932D82179206805AA08AB06F0C6
:1027C0006BF8002829D008A803900278217BA06824
:1027D000322604966B465E6009AE37462B371F6083
:1027E00005AF3B4606F014F83846294607F0BAF81C
:1027F000122203980270217D20696B4634465D34B5
:102800001C60049C5C603B4606F002F804488F2282
:10281000314606F0EFFE012000E000202DB0F0BDB3
:10282000261C0020B0B582B01449086000F088FB77
:1028300013480124047001F01FFB1348784402F090
:10284000C9F8807801280BD001ADAC700020288039
:102850000E48784402F0BEF80322294602F0B6FF83
:102860002102084806F0C0FE002005F0C1FE204607
:1028700005F0BEFE00F02EFD02B0B0BD3C1B0020F6
:102880009C1800205C190020C08E0000AA8E000059
:10289000B0B5104C41222270601C0F4D2946083102
:1028A00006F0A8FE42202822225420464330294622
:1028B0004C3106F09FFE9520285C002808D06B3430
:1028C000753520222046294606F094FE8B20B0BDA7
:1028D0006B20B0BD611E00200418002010B500223E
:1028E0008B5C002B0AD1521C082AF9D306D1002197
:1028F0008170302141700170022010BD89180823B9
:102900009C1A224605F020FF600010BDF0B58BB088
:10291000044600780025082800D098E0A068002828
:1029200000D194E07748012101707720764F385C20
:10293000002800D18BE0E668002E17D00291754880
:10294000784402F047F841787048827F0A431106C4
:102950007DD04021405C1F2101402022551A0022D9
:10296000A168891BA94206D2032570E0A06A042849
:102970003FD203276AE00192A66AAE42374600D3EF
:102980002F46624909181F3120463A46FFF745F89D
:10299000A068E168814204D1002060742078401C66
:1029A0002070402459480146005DC0190855AE42C8
:1029B000029D4CD30F46887F002868D039463F27B8
:1029C000C85D4001021D1F3103AD2846FFF7B8FB6B
:1029D00081204100002630462A46FFF76DFC002882
:1029E000C2D04A4801460655C05D401CC855012565
:1029F0002DE00291454900200646887746487844F4
:102A000001F0E8FF4078002802D04049887F0CE0C0
:102A1000A268616A03A80190FFF788FB6337384614
:102A20000199FFF7C9FB394988773746000611D06D
:102A300040200F543F200F54042220460E463946B2
:102A4000FEF7EBFF3146A068042803D13D46284637
:102A50000BB0F0BD0F46E6683048784401F0BAFF8D
:102A6000002E00D06FE70078002800D17CE72C48CA
:102A7000784401F0AFFF4078002840D0402100208A
:102A800078543F21785404250122064668E70198CE
:102A900000280CD000253D551F371D48042239461B
:102AA00005F052FE1F49794428462A4623E00020BB
:102AB00038553F20395C491C3954CBB2144C204660
:102AC00064302821184A7A4401F0B0FD39461F319C
:102AD0002046FFF703FF27253A2121547919461C88
:102AE000A019FFF7FBFE801908353F2DF4D10F49DF
:102AF00079440020024606F04DF80225A7E700259C
:102B0000A5E7C046601E0020DC180020401B002006
:102B1000261C0020BC8D0000FE8C0000A28C000052
:102B20008C8C00006A7F000022770000C87F0000C4
:102B3000B0B50C460546002A2CD0284606F01AFFF0
:102B400001060BD0C0B200216A5C002A06D0602AC0
:102B500000D9203A6A54491C8142F5D3204606F038
:102B600009FF01060BD0C0B20021625C002A06D02A
:102B7000602A00D9203A6254491C8142F5D3284684
:102B800006F0F8FE02462846214606F047FD0028DA
:102B900005D1B0BD2846214606F0E4FEB0BD01488F
:102BA00000F02FFF0160000010B5044600F0C8F9E6
:102BB000D520C001002C04D100F0F4F900F0E0F9B8
:102BC00010BD00F01EFF0000F0B59DB0039104465B
:102BD0002848006801F0FEFE05462020264F395C9B
:102BE00014AA0292384605F0C7FD4120395C21370E
:102BF0000CAE3846324605F0BFFD04AA0192029899
:102C0000314604F0B7FB1D4E324664320A21642778
:102C1000019802923B4604F045FDF05D7F1C0028C0
:102C2000FBD1122069460860653F6423029839464B
:102C30003246FFF703FA2046039906F0D5FC2978BF
:102C40000020002906D002462154521CD0B2295C33
:102C50000029F9D120183178002907D0721C0170A1
:102C6000531C401C117800291A46F8D1002101702C
:102C70001DB0F0BD3C1B0020DC180020611E0020B0
:102C8000F0B59DB007909A4F386801F0A3FE05900B
:102C90003868C06800280FD0964805F083FD396871
:102CA000C968814208D000F04BF9079C2046FFF725
:102CB0007BFF002C00D116E12025684645608E4A36
:102CC0002C3202608D48012400262146334602F052
:102CD00099FD8B48807F12210028069404914BD0E7
:102CE000039508AF3846FFF735FAFF240434002572
:102CF000284621463A467E4FFFF7DEFA002808D1E3
:102D00000296079E3046FFF74FFF002E029E00D12D
:102D1000E9E00B98002827D000F0A6F901460C98AE
:102D2000002804D00D4600F09FF92946054610AF53
:102D3000384602912A46FFF712FA611C00203A46F3
:102D4000FFF7BAFA002806D1079C2046FFF72CFFB0
:102D5000002C00D1C7E010A8007D08A98877069C48
:102D6000634F039D029904E008A8807F0021069C20
:102D7000039D634A03282BD16248007800280DD0B8
:102D80006348784401F026FE0078002806D1079DAC
:102D90002846FFF709FF002D00D1A4E0002C4BD0FE
:102DA0007720544C205C002820D010AD782068702B
:102DB000302028703B6820466330A91C4F4AFFF73B
:102DC000D9F85148027851482946FFF7B1FE13E07F
:102DD00008A8007F01284AD0022876D108A8407FA1
:102DE0004121505447480026067025E0474849498C
:102DF0007944092206F0FEFB059B6220215C322605
:102E00006846466010AD056042342046049A05F0DD
:102E1000FFFC3D4F3A783D4C20462B302946FFF7CA
:102E200087FE28463146FFF7CFFE3A785D342046CC
:102E30002946FFF77DFE069E33480078002803D020
:102E4000002003F07BFC4EE0002E0DD02D480078D2
:102E5000002806D03048784401F0BCFD40780028B6
:102E60003BD02F4979443AE0FFF7CAFB3BE002919F
:102E70002448002101700D99002902D00E9C002CDD
:102E800008D1079C2046FFF78FFE002C2BD00E9C0C
:102E90000D99039D174F384642302A4606F0AEFB87
:102EA00062203D5438466330142521462A4606F0F8
:102EB000A5FB77203D540299002916D00398085CA1
:102EC00004901431069C059110E0079C2046FFF702
:102ED0006BFE002C07D000244EE7104979440020F7
:102EE000024605F057FE1DB0F0BD069C004F43E7BB
:102EF0003C1B0020DC18002004180020B81C002017
:102F0000401B0020601E00209C180020261C002072
:102F10007A890000B06F0000A6880000F07C0000F5
:102F20004C7D000010B50449083104484124224674
:102F300006F060FB204610BD04180020611E002032
:102F400080B58E20084900220A52084802700848BD
:102F500002700848027008483C2106F045FB07480B
:102F6000802106F041FB80BD0418002000180020DD
:102F70009C1800209D180020A0180020DC180020BC
:102F800080B506480078002801D106F0BFF9044951
:102F900079440020024605F0FDFD80BD5C1900204B
:102FA0008476000080B504494870000A087020202B
:102FB000022101F06FF880BD611E0020F0B581B0E4
:102FC00004461748401C402106F00EFBE0782128FB
:102FD00001D0042700E00527E119202521282E46ED
:102FE00000D006460E48801B2130324606F006FB14
:102FF000B81C8119C8B220180022D243805C212855
:1030000000D1491CC9B26118212800D005460448E6
:10301000401B41302A4606F0F1FA01B0F0BDC0462F
:10302000611E0020B0B50546072028400024012875
:1030300012D0022812D1002907D00A4802F05AFD06
:10304000280609D502F0B8FB06E0FF2152310548F9
:10305000002202F067FD04462046B0BD022000F0C9
:10306000D0FCC046611E0020F0B581B005460C4E74
:1030700034464C340027F0198E21405C002806D0DD
:1030800014222046294606F0C9FA002804D021342B
:103090007F1C022FEFD30024204601B0F0BDC046B4
:1030A00004180020F0B58FB00C46054603AF384633
:1030B00006F0D4FBB88587B2002F27D0102F00D19F
:1030C000E9E0064603A8002585850D9802F046FD37
:1030D0000F200003304009210903884214D0032146
:1030E000490388423ED18E2074490D5274480570C0
:1030F000744805707448057074483C2106F074FAF1
:103100007348802106F070FA380A3FE003A802F005
:1031100025FD0D90684A1078E02811D0F02800D0E5
:10312000C2E05078072848DC022860D11379D178B2
:1031300090786E4635607460521DFDF725FC6DE099
:103140005078072845DC02286DD0042800D086E09E
:103150001379D17890786E4635607460521DFDF712
:1031600083FB1CE08E2055490D525548057055488B
:1031700005705548057055483C2106F035FA54480D
:10318000802106F031FA7005400F683021684A4A04
:1031900050542068101846702068801C206002F08F
:1031A000D1FC03A9884202D10D9802F0D7FC03A8F4
:1031B000808D002835D000F024FC082823D1137915
:1031C000D17890786E4635607460521DFDF75AFCD8
:1031D00024E0082835D00A284DD11379D178907889
:1031E0006E4635607460521DFDF740F9D7E704283C
:1031F0005ED11379D17890786E4635607460521D37
:10320000FDF7ACFC0AE00A2852D11379D178907806
:103210006E4635607460521DFDF790FF0D9802F008
:103220009DFC0FB0F0BD8E20244900230B52137972
:10323000D17890786E4635607460521DFDF778F84D
:10324000ADE78E201D4900230B521379D178907879
:103250006E4635607460521DFDF786F99FE70628BB
:1032600026D11379D17890786E4635607460521DFE
:10327000FDF742F893E70C281AD18E200F4900235E
:103280000B521379D17890786E4635607460521D78
:10329000FDF788FA83E703A8002181850D9802F0E5
:1032A0005DFC102000F0ADFB3720400200F0A9FBD0
:1032B0006D20000200F0A5FB611E00200418002014
:1032C000001800209C1800209D180020A018002045
:1032D000DC1800208EB000240D940C946F46384604
:1032E00006F0BCFAB88587B2002F25D0102F65D024
:1032F0000646684684850A9802F030FC0F200003D9
:10330000304009210D03A84214D00321490388420B
:1033100025D18E2030490C5230480470304804705A
:10332000304804703C21304806F05EF980212F4877
:1033300006F05AF9380A26E0684602F00FFC0A90B7
:103340000DA801880D940CA8007800F0A3FE0C9441
:1033500000283BD00CA80DA9FFF7A4FE20E08E208A
:103360001D490C521D4804701D4804701D4804700E
:103370003C211D4806F038F980211C4806F034F93C
:103380007005400F6830AF4203D010210C9A8A4379
:103390000C920D99164A505450184670881C0D9086
:1033A00002F0D0FB6946884202D10A9802F0D6FBAF
:1033B0006846808D002891D000F023FB6846848504
:1033C0000A9802F0CBFB102000F01BFB014800F034
:1033D00018FBC04682690000041800200018002075
:1033E0009C1800209D180020A0180020DC18002048
:1033F000611E002080B500F0B5FD80BDF0B581B044
:10340000E74D28780C2805DC052800D198E00C2829
:103410000DD1B9E10D2800D1ECE0152807D1E34822
:103420008079012803D1A879000700D4B5E1DD4CEB
:103430000027676001202070204602F013FB042063
:1034400002F098FB6060692844D100F031FD00F083
:1034500031FDBE25D44E7753042002F08BFB606013
:10346000002800D190E1972800D18DE1C024305987
:10347000002800D188E1705BC421715C80B2884271
:1034800000D381E102F042FB002800D07CE102F091
:10349000B3FAAA2804D102F0D9FAAA2800D073E11D
:1034A0003059715B49014018CC217158002902D074
:1034B0008847002807D0012803D13059715B4901A2
:1034C000401800F04FFD705B401C705331590029CB
:1034D000D2D159E1C025B44C6059002800D14BE14C
:1034E000BE26A05BC421615C80B2884200D343E168
:1034F00002F00CFB002800D03EE102F07DFAAA2881
:1035000004D102F0A3FAAA2800D035E16059A15BEA
:1035100049014018CC216158002902D08847002871
:1035200007D0012803D16059A15B4901401800F080
:1035300019FDA05B401CA05361590029D2D11BE1A9
:10354000984C0027676001202070204602F08AFA1C
:10355000042002F00FFB6060002800D114E19728DE
:1035600000D111E1692800D0CDE000F0A1FC00F00D
:10357000A1FCBE258C4E7753042002F0FBFA60605C
:10358000002800D100E1972800D1FDE0C024305987
:10359000002800D1F8E0705BC421715C80B28842E1
:1035A00000D3F1E002F0B2FA002800D0ECE002F023
:1035B00023FAAA2804D102F049FAAA2800D0E3E0AD
:1035C0003059715B49014018CC217158002902D053
:1035D0008847002807D0012803D13059715B490181
:1035E000401800F0BFFC705B401C7053315900293B
:1035F000D2D1C9E06B4C00276760012020702046C3
:1036000002F030FA042002F0B5FA6060002800D120
:10361000BAE0692838D0972800D1B5E0C025624CBF
:103620006059002800D1A7E0BE26A05BC421615CE0
:1036300080B2884200D39FE002F068FA002800D0F0
:103640009AE002F0D9F9AA2804D102F0FFF9AA28D9
:1036500000D091E06059A15B49014018CC2161582C
:10366000002902D08847002807D0012803D16059DB
:10367000A15B4901401800F075FCA05B401CA05301
:1036800061590029D2D177E000F012FC00F012FC61
:10369000BE25454E7753042002F06CFA6060002886
:1036A00072D0972870D0C024305900286CD0705B3D
:1036B000C421715C80B2884266D202F027FA0028E9
:1036C00062D102F099F9AA2803D102F0BFF9AA2821
:1036D0005AD13059715B49014018CC2171580029E9
:1036E00002D08847002807D0012803D13059715BE8
:1036F0004901401800F036FC705B401C7053315992
:103700000029D5D140E0D020274C2058002803D0F4
:10371000E978490800F06AFCC025605900282BD0E0
:10372000BE26A05BC421615C80B2884224D202F034
:10373000EDF9002820D102F05FF9AA2803D102F0A8
:1037400085F9AA2818D16059A15B49014018CC21FC
:103750006158002902D08847002807D0012803D1EA
:103760006059A15B4901401800F0FCFBA05B401CC4
:10377000A05361590029D5D1C420205CBE21615AD3
:10378000814201D302F0C2F902F0C0F9002801D150
:1037900000F048FA012001B0F0BD102000F031F92E
:1037A0005C1A0020A41A00205C190020B41F00201D
:1037B00010B58CB06C46204606F050F8A085000489
:1037C00006D1684602F0CAF90A90FF2002F086F995
:1037D00002F0B8F96946884202D10A9802F0BEF9AF
:1037E0006846808D002801D10CB010BD00F009F9A9
:1037F000F0B593B0044600280AD10EAC601D0F212D
:1038000005F0F2FE0020207120742B490E911190DA
:103810008E202A4D00262E52294806702948046021
:10382000294806702948067029483C2105F0DCFE2D
:103830002848802105F0D8FE90202E54264C0127E0
:103840003902204605F0D0FE02AD284606F006F803
:10385000A88585B2002D0DD002A886850C9802F0AF
:103860007DF90C9802F07AF9102DE8D0FFF7A0FF4F
:1038700013B0F0BD02A802F071F90C9000F0FCFA50
:103880001648784401F0A6F8807801280AD001ACE7
:10389000A77026801248784401F09CF80322214644
:1038A00001F094FF002004F0A3FE012004F0A0FE2C
:1038B000FFF766FBFFF70EFD455448200418002073
:1038C000001800203C1B00209C1800209D180020A0
:1038D000A0180020DC1800205C1900207A7E00006F
:1038E000667E000092B00446806800280BD10DADC2
:1038F000681D0F2105F078FE0020287428711090B3
:1039000022480D90A560002601AD284605F0A6FFCF
:10391000A885000407D101A802F020F90B90F00758
:103920000FD002F0B7F802F00DF901A9884202D1D8
:103930000B9802F013F901A8808D002824D10126EC
:10394000E2E70A2001F02CFF6068022812D0042868
:103950000BD00328E5D1E06800218161A168E0680F
:10396000FEF760FEE1688861DBE7A168E068FEF7CA
:10397000C9FED6E7A168E068FEF704FF0028D0D0B2
:10398000A068FEF74FFFCCE700F03BF84554482015
:1039900080B5002002F0E2F880BDB0B5884208D9B9
:1039A000002A0FD0491E401E8B5C8354521EFBD14F
:1039B00008E0002A06D000239CB20D5D05555B1C73
:1039C000521EF9D1B0BD80B5002A04D00B46114675
:1039D0001A4605F017FE80BDB0B5401E491E002AEC
:1039E0000AD0551E8B5C845C9C422A46F7D09C42D0
:1039F00004D80020C04302E0002000E00120C0B253
:103A0000B0BD044602F09EF8214605F033FFB0B584
:103A100082B001920092002A0CD0431E491E002061
:103A20009C5C8D5C65402843521EF9D100210091B9
:103A3000019100E000200099019A914202D1C0B2A8
:103A400002B0B0BD0120FFF7DCFF0000F0B58BB085
:103A50000746002000295BD0119D002D58D00A9206
:103A60006F4C109E0994621C32400492002A02D1CD
:103A70002C68002C4CD000200A9A002A044600D062
:103A80001468022944D3069401950998029630409F
:103A90000990129803900020C4430594DAB207926B
:103AA0000B463E4608909B1E32D00A463946B51C4E
:103AB0003078767877B2002F12DA80375FD07F27A0
:103AC0003E40059C66430027002E08D02C783F021C
:103AD0003F19761C5B1E6D1C002BF5D117E03E468E
:103AE0000A9C079FB8420F4606D1002C12D0E81B53
:103AF0002060069981420DD9B3421C46114600D37D
:103B00003446AE191B1B012B0898CCD800E00020CE
:103B10000BB0F0BD0998984231D886422FD3114698
:103B2000341A039A944202D0029A002A27DB9C425C
:103B300000D31C46039A944200D8224688421ED8DD
:103B40008A421CD81018884219D8BD4217D3099848
:103B50004019B84213D30A901018B8420FD37918FD
:103B6000A9420CD30A9D8D4209D8884207D80498EF
:103B7000002806D001980A9901602046C8E70898F5
:103B8000C6E7019801680298002823DB0A98814261
:103B900028D9002A0898BBD0059C101B0919E41AE3
:103BA000099B5B1E9B1BA34200D823460A9C24183A
:103BB00009180598039D401B834200D80346A01EA8
:103BC000491E5B1C059D04780C70401949195B1C4B
:103BD000F9D122E008460A99FFF719FF0146404251
:103BE000484195E7002A089892D00598C31A099889
:103BF000401E801B984200D81846059B039C1B1B47
:103C0000984200D81846401C00230A9E9CB2355D9D
:103C10000D55401C5B1C0028F8D1104678E7C046C3
:103C2000FFFFFF3F80B501F071FF002800D080BD8D
:103C3000064800210171C17002228270417060212A
:103C40000170052101F056FF80BDC0465C1A0020BE
:103C5000B0B51A48C078032807DC01280DD0022827
:103C600028D1174804F049F8B0BD04281FD008280F
:103C700020D1134804F03FF8B0BD114C012120467B
:103C800004F034F8204604F013F80E4CA079002814
:103C900011D120460C30002504222946FFF793FE5F
:103CA0001034082220462946FFF78DFEB0BD044897
:103CB00004F01FF8B0BD1020FFF7A3FE5C1A00202F
:103CC00074200020B41F00207F210140032903D865
:103CD00002484018007B704700207047B41F002046
:103CE00080B515480179042917D0022906D0012989
:103CF00020D1811D124803F0E4FE80BDC2787F21EF
:103D00001140032916D84A000C4B9A18002313823D
:103D1000821D0B4803F05AFF80BDC2787F211140FD
:103D2000032907D8054A521843791373821D0448A2
:103D300003F0F5FE80BDC0465C1A0020B41F0020D1
:103D40007420002070B5FF2A1ED815460E46044682
:103D50000E484271202101715021017080212143C0
:103D6000C170D11C8170090A4170062101F0C2FEA8
:103D70003046294601F0BEFE7F2020404000044925
:103D800008187D210901018270BDC0465C1A00201F
:103D9000B41F002080B50A46014682201423FFF795
:103DA000D1FF80BD80B50A46014683201423FFF76A
:103DB000C9FF80BD80B50B480178002900D080BDC7
:103DC000062181710A21017007498A784B781B020C
:103DD0009A18452A00D345224280C91C0348FFF7A0
:103DE000DCFD80BDB41F00205C1A0020611E002095
:103DF00080B51F4988784A781202101809780F296F
:103E000009DC0E290FD00F2920D1012824D1FFF77A
:103E10001FFF012080BD10291CD0162916D1FFF7E5
:103E2000C9FF012080BD134881686431816016217B
:103E3000425A002A07D0642A134600D36423D21AB8
:103E4000425212040ED0891E0E29F1D10220FFF732
:103E5000D5FA80BD032801D2002080BDFFF740FFC6
:103E6000012080BD002101701020FFF7CAFDC0466F
:103E70005C1A0020B41F0020B0B50A2001F090FCAD
:103E8000094C0025182220462946FFF79CFDA56015
:103E9000A5716580257000F03DFB04480560456014
:103EA000FCF724F9B0BDC046B41F0020CC1F002091
:103EB0007047000002480021016041607047C04621
:103EC000CC1F0020F0B589B00546084600F082FD01
:103ED000002843D00446006900283FD0284600F05F
:103EE00079FD014602AD1C2228460192FFF755FDDF
:103EF0002168E98062682A81A068194F65233E46DF
:103F00003B7089B292B24A4342435107D20800291A
:103F100000D0521C009204278740B8181D30B070A2
:103F2000000A70700321304601F0E4FD2846019933
:103F300001F0E0FDA06830700121304601F0DAFDAB
:103F4000E06800F047FDB9B201F0D4FD009885B2F9
:103F5000206900F03FFD294601F0CCFD09B0F0BD1D
:103F60005C1A002070B500F035FD0446067801F0BB
:103F7000CDFD002832D17F200640002E2ED0E069F2
:103F800000281DD000F026FD0546052E02D1A07E9A
:103F9000002824D0284605F0EDFC0646124865218D
:103FA000017031461C318170090A4170032101F012
:103FB000A1FD1C21204601F09DFDB1B228460BE079
:103FC00009481C258570002141706521017003217D
:103FD00001F090FD2046294601F08CFD70BD204681
:103FE0002946FFF76FFF70BD5C1A002070B50028EE
:103FF00027D00446134860C808388D4201D1761C8A
:1040000046600D43002902D005602A4605E00022E3
:10401000026042600C4B5B1C1D438A4201D00021B0
:104020004160082E0AD30321304605F0BFFA012073
:10403000002901D181070D43C00785432846314639
:10404000A04770BDCC1F0020FFFFFF7FF0B581B0FF
:104050000F4E01243470B11CA72047007A1C204663
:1040600001F02EFD054670703A1A3718F91C02202F
:1040700001F026FDB8702D187619F47001F014FDCA
:104080000021B171902171713071E81D01B0F0BD56
:10409000611E0020F0B58BB00746400708D0079797
:1040A0000798C0B289B2FEF7BDFF80B20BB0F0BD79
:1040B000A52040000190A04C9E4E079710203D4641
:1040C00005408AB2002A00D1B1E0002D00D0AEE058
:1040D000069203910490059507E04821002230469E
:1040E00001F020FD012000F039F901F00FFD00285A
:1040F000F3D17D200001A1680D18207809283FDC4C
:104100000728069947D0092860D100218B480291E1
:1041100002F094F910E0FFF785FD482100223046B7
:1041200001F000FDA068A84200D3F7E0FFF760FEB1
:1041300001F0ECFC0028F0D1804801F023FF0028BA
:10414000E9D00198069A824200D9EDE090207C499E
:1041500088548818029A4270481D039A921C92B2A1
:10416000FFF71BFC052276480299FFF72CFC039809
:10417000C01D83B283217148714A02F073F940E097
:104180000A28039A06990BD00B2822D16F4878444D
:1041900000F032FA35E06C48784400F02DFA30E057
:1041A0000198C01D814200D9BEE00D46B270532077
:1041B0003070100A70700321304601F09BFC60489B
:1041C000294601F097FC002020701DE0002800D156
:1041D000A7E00798C0B2FEF725FF002811D0A0E0A5
:1041E000FFF720FD48210022304601F09BFCA0682B
:1041F000A84200D392E0FFF7FBFD01F087FC002806
:10420000F0D120780028EBD10020A07120706080D0
:10421000B90600D549E7FFF705FD3806059D049866
:1042200005D5089008AA474B1846114601DF002D16
:1042300004D178066DD40020A0712070404F00207A
:10424000608001F063FC002801D1FFF7EBFC4821FE
:10425000002530462A4601F065FC022806D8B178D0
:10426000727812025118C91C814208D1FFF7C0FDB3
:10427000608821780029E4D00028E2D002E0002004
:104280002070DCE73249794404223846FFF7A4FB6A
:10429000002826D02F49794404223846FFF79CFB9A
:1042A000002822D02C49794404223846FFF794FB99
:1042B000002831D101F0CAFBAA281FD10120387093
:1042C000B81C402101F0B4FB7870811C184A1346D9
:1042D000114090227A54C11C194000257D54011DC3
:1042E00011E0FFF7B3FE01460DE00020787090204A
:1042F00038707F20C043079D054303E08520787018
:10430000692038700221EFB20795680700D1D5E621
:10431000C6E66088401FC8E66088C6E61020FFF742
:1043200070FB0920FFF76DFB0220FFF76AFBC04618
:10433000FFFF00005C1A0020B41F0020D41F0020E3
:10434000611E0020BE9A0060F9FBFFFF13FCFFFF17
:104350006B5F0000605F0000555F000070B50546B0
:1043600001F0D4FB002801D1FFF75CFC0C4E482182
:1043700000243046224601F0D5FB3078152806D8B7
:10438000012181400748014201D0002D06D1FFF7ED
:104390002FFD002801D1044600E00124204670BD15
:1043A0005C1A00202070200010B5FFF73BFC084C81
:1043B00048210022204601F0B5FB20780E2801D0CC
:1043C000FFF716FD01F0A2FB0028F1D110BDC04699
:1043D0005C1A0020F0B581B000920446464EB1420E
:1043E00010D00F46444D0021402628463246FFF7A4
:1043F000EAFA009A402A00D3324628463946FFF7A7
:10440000CCFA3D4EB07801280ADC002825D00128DE
:1044100060D1F01C042101F0E7F94021304628E08A
:10442000022824D0052855D13079F17809020818DE
:10443000324C21680027884253D1206800281BD0C5
:104440000098401F85B22E480168A94201D2006839
:1044500085B22C480068711D2EE0F01C0027042254
:104460003946FFF7B0FA40213046A04739E02248EC
:104470004021A047002734E0B0797179090209187A
:104480002148016001684908A8292AD801681C4808
:10449000016071783278120251181C4A1160194972
:1044A0001B4A0A600099C91F8DB20168A94201D256
:1044B000006885B2F11D16482A46FFF76EFA1048CB
:1044C0000168491B01600F480168491901602068B3
:1044D000401C20600A480068002801D0012707E03E
:1044E0000227064800210160064801600448016077
:1044F000384601B0F0BDC0461820002058200020EA
:1045000060200020642000205C2000206820002023
:10451000611E002003480021016003480160034838
:104520000160704758200020642000206020002097
:10453000F0B581B02A4F3A682A4C216800291ED074
:10454000002A1CD000902A4D002140222846FFF767
:104550003AFA0520A87027480168090A29700068FE
:104560006870214B1868000AE8701868287119688B
:10457000206800290BD03B280DD93B260CE01A48B7
:1045800000210160396019480170216026E0392856
:104590000AD9392609E026683968681D3246FFF7CE
:1045A000FCF9009A10490DE026682068000A68713D
:1045B0002068A8713968E81D32461D46FFF7EDF9FD
:1045C0002946009A2068801B20603868801938606E
:1045D0000868401C086006484021904701B0F0BDC3
:1045E000642000206020002058200020B41F0020FC
:1045F000182000206820002080B500290BD0064A32
:1046000000231360054A1160054A064B1360064AF1
:104610001160FFF78DFF80BD582000206020002032
:1046200064200020611E00205C20002081B0F0B5D5
:104630008EB01393022900D2BDE1002800D1BAE167
:104640001546002A00D1B6E10C46064604F0CCFF20
:1046500013A909912978002900D1ACE13046671EE1
:10466000002602E0A9194978761CC9B2002901D0B8
:104670002529F7D1BE4200D33E462946044632469C
:1046800004F0BCFFBF1B069700D194E12046A0199F
:10469000A95DAD19252900D089E104906B1C00208B
:1046A000202105910A21089107460390044605E060
:1046B00002242B4609990A1D09920F681D462246BD
:1046C00029786D1C00242D29F9D0472915DC2F29C4
:1046D00023DD0B46303B0A2B00D304E13029059C37
:1046E00000D10C46002800D0059C0A2343435818EB
:1046F00030382B4605941446E0E7672906DC62292A
:1047000037DC482946D10121039103E072291ADCE4
:10471000682945D11021089117E0252900D1CDE065
:104720002A2922D02E2900D0DDE029782A2900D09C
:104730003CE169786B1C01244829BBD06829B9D0B9
:104740007329B7D031E173292DD109990B1D099334
:10475000D3B20968012B00D1BEE0022B00D1BEE02C
:10476000032B2B461446A9D0C1E0297873299FD08A
:104770001CE1632900D1A3E0642900D0B3E00790D5
:104780000998011D09910068C11747184F40C10FD2
:104790000A2012E0582900D0A5E00121039105E08C
:1047A000702903D09FE0782900D09CE007900998F9
:1047B000011D0991076800211020B8420897029155
:1047C00002D90124074612E001260746044639466D
:1047D00004F066FEB04209D1384660430799491E8D
:1047E0000791089988422646F0D900E0344601979F
:1047F000029A002A01D1079901E00798411E00237F
:10480000002A01D1174600E0DF43002A08D00598AE
:10481000C0B2302806D10AA82D220270012603E07A
:104820001E4601E01E461346881E0D2812D80AA80F
:104830008019491E059AD2B205971F4604F0E2FE80
:104840003B4601200799401A0599401A401C761CE6
:104850000028FBD1002B03D00AA82D218155761CFE
:10486000002C1CD00398002802D05948784401E05D
:10487000564878440790019F0898214604F010FE9E
:10488000394604F093FE0798405C0AA988552046F3
:10489000394604F005FE761CA7420446ECD9069F73
:1048A000BE4200D33E460AA9049C2046324604F08C
:1048B000A5FEBF1B7FD02046A01916E0252103E0EE
:1048C0000998011D09910168049801700699491E13
:1048D000069170D0401C07E007903E460EE007901E
:1048E0000878002842D00498069F297860E0079055
:1048F00000228B5C521C002BFBD1561E0498069F95
:10490000089A102A27D1002EEFD000220792022FFA
:1049100051D33C46079A8A5C039B002B05D0012BA0
:104920000ED107462848784402E0074625487844D7
:104930000F2313401209C35C7B70825C38463A70C7
:10494000022C38D02746A71E079A521C801C0792BB
:10495000B242DCD318E0BE4200D33E46324604F0F9
:104960004DFE0498BF1B26D080190DE0069CA7427F
:1049700000D3274620220498394604F043FE0498C9
:10498000E41B18D0C01927460799B142ADD98C1B3A
:10499000BC4200D33C4620220646214604F032FEAB
:1049A0003F1B08D0304630199FE72A210498069F04
:1049B000002900D054E600200EB0F0BC02BC01B0CB
:1049C0000847C046D2580000EA5800008E5900003F
:1049D000A459000080B50449884204D303498842A1
:1049E00001D200F005F880BD0000D0C040B7D0C0B3
:1049F0007A460249C91C891A401A7047F149D0C049
:104A0000B0B50C460546001D142104F0EDFD2C60E8
:104A1000B0BD0168C27D0A700168827D4A7001687C
:104A2000427D8A700168027DCA700168C27C0A7189
:104A30000168827C4A710168427C8A710168007C4D
:104A4000C8717047F0B587B01446064641680C98A7
:104A50000A1872603F2A0CD84020821A2046194654
:104A600004F0B6FD72690A43726131690143316134
:104A70003BE037460837314610310591403A7260C5
:104A8000801A00210691CD4301958540E9432046D7
:104A9000CC17396002977C6003900493194604F0A8
:104AA0008BFD2140059C62680A436260A84321682F
:104AB000014321603046FFF7ACFF0698206060603C
:104AC000306808303060706800280ED0019D854045
:104AD000E943CB17029A0AC240210A1A0398A84355
:104AE0000499194004F074FD03C407B0F0BD000040
:104AF000F0B58BB014460A4602292ED30146006851
:104B0000184B984229D14868174B984225D1002567
:104B100068460560212002AE334600F079FF20365A
:104B20000196124E7E440198057002A8212120278B
:104B300022463B4600F086FE204631463A4600F0CB
:104B400031FF6D1C0028EEDA094A7A442021204604
:104B50000B4600F043FF0BB0F0BDD520C001FEF7BF
:104B600050FFC046550A0080D32A86A2FC5600009A
:104B7000F6560000F0B59FB0059303920C46074629
:104B800026480068FFF726FF0022249EB95C002912
:104B900005D1521C132AF9D91221049108E0384694
:104BA000FEF762FA002834D02021415C04911430D1
:104BB0000290082116AF03983A4603F0DDFD0EADD2
:104BC0002046294602F0B6F806AC38462946224669
:104BD00002F0D0FB0A2164272046059D2A463B4669
:104BE00002F060FD3046029C214604F0BBFE2846E0
:104BF00004F0C0FE0390204604F0BCFE6946049A0F
:104C00000A603218284603993B46FDF717FA1FB091
:104C1000F0BDD520C001FEF7F4FEC0463C1B0020CD
:104C2000F0B593B01646012A29DB0D460246002056
:104C3000295C002903D1401CB042F9DB1FE0412769
:104C40007B4310487844C11802AC204601923A4692
:104C500004F0D0FCFFF7A8FB684606602E2630461D
:104C600021463A462B4600F01DFEFFF79DFB6846A5
:104C70000760304601990A46234600F001FE13B052
:104C8000F0BDC0461C560000F0B593B016460C4669
:104C9000019002AD134979444122284604F0AAFC50
:104CA0000127284621463A463B46FFF7B9FF611CDB
:104CB0001F24002328462246FFF7B2FF032328467D
:104CC00031463A46FFF7ACFF711C022328462246C4
:104CD000FFF7A6FF691C2022019804F08BFC13B09B
:104CE000F0BDC046CE560000F0B599B00D46059017
:104CF0000020189010A811461A46FFF7C5FF1F9A0A
:104D00001E9F002A03D010A80146FFF7BDFF10AE7A
:104D1000304631463A46FFF7B7FF2E20202406AF33
:104D2000294622463B4600F0DFFDFFF73DFB18A871
:104D3000694648220C60059B4B608A60C860044944
:104D400003223846334600F0EFFD19B0F0BDC046EF
:104D500001060000F0B58FB01D4614460E46012135
:104D6000049109020590039100F07CFD002E06D00D
:104D70000020315C00290DD1401C1328F9D90021F5
:104D8000684601604160574A7A440423059800F060
:104D900039FD38E0022C029509DD052C0ED0042CDB
:104DA0000FD0032C00D093E04B4878440BE04948E7
:104DB0007844002C07D0022C05D089E0484878447C
:104DC00001E046487844002709970897079701783B
:104DD0004278120251188278C078000280180004CC
:104DE0004018069006AD284610301422314604F0D3
:104DF00001FC6846076047602423059839462A4627
:104E000000F000FD029D169E052C01D0032C0DD153
:104E100006AD20272846394604F0E6FB0499E977D9
:104E20006846C0C005982A463B4606E020236846EF
:104E300006604360012105982A4600F0E3FC032C3C
:104E400042D3159800283FD13078032101403170BA
:104E50000598039900F006FD201F022803D2039451
:104E6000224D7D4404E0032C32D103941E4D7D4439
:104E700014980490284604F07DFD034600276846F8
:104E800007604760059C204639462A4600F0BAFC78
:104E900068460760476020252046394632462B4643
:104EA00000F0B0FC68460660456001212046049A87
:104EB0002B4600F0A7FCFE2003990140042903D1F2
:104EC00077700420307003E03078032101403170A6
:104ED0000FB0F0BDF5550000FF550000E95500008A
:104EE000F35500002D5600004E6800005755000095
:104EF000F0B5F1B005461948007800281CD005919E
:104F0000E420174E305C04900120010206AF3846C1
:104F1000144600F0A7FCE520325C68463146C431F7
:104F20000160049944608560022908D0212048432B
:104F30000C4909184C3103E0002071B0F0BD00218C
:104F4000A43638463346FFF705FF20220598294648
:104F500004F064FB4142484171B0F0BD9D1800204F
:104F6000401B00200418002080B501460A48027842
:104F70000020002A0ED0E522084B9A5C052A01D0B9
:104F8000032A07D1A4332022184604F047FB014628
:104F90004042484180BDC0469D180020401B002073
:104FA00010B582B00C46694608604621034A7A442F
:104FB00020232046FFF73AFB02B010BD494C000009
:104FC00010B50C46782161703021217004490B68BE
:104FD000A11C044AFCF7CEFF2A200021215410BD59
:104FE0003C1B0020B81C0020F0B59BB017460C46B7
:104FF00006462B480068FFF7EDFC0546002E06D05C
:10500000E4202849085C022808D1002F06D0002F90
:1050100011D00AA9304601F08DFE13E02121414351
:10502000214845186C20285C01900AA9304601F0FF
:1050300081FE60350AE062211C48415C423012AAC0
:1050400003F09AFB12200190002E0AD01548A430DC
:1050500002AE314601F06EFE0AA812AA314602F0F5
:1050600089F9134E643612A80A216423324602F0ED
:1050700019FB2046294604F075FC304604F07AFC02
:105080000746284604F076FC6946019A0A60221811
:1050900032210B1A30463946FCF7D0FF1BB0F0BD69
:1050A0003C1B0020401B002004180020DC180020BE
:1050B000611E002010B50446E4201349085C022854
:1050C0000ED10020E0714E20A071572161714F2157
:1050D0002171E0704B21A17060705520207010BDCF
:1050E0007821617030212170212141430748401807
:1050F0004C3007490B68A11C064AFCF73BFF2A20ED
:105100000021215410BDC046401B0020041800207F
:105110003C1B0020B81C0020F0B5A9B002901D482F
:1051200002780023039369460B60011D212621ADFF
:1051300030462B4600F06CFC202717AC3046294641
:105140003A46234600F0D0FBFFF72EF904A90123CD
:1051500030460E46224600F0D7FB2821204604F0B8
:1051600059FA2846394604F055FAFFF71DF9782018
:10517000029A50703020107007480368911C144642
:10518000064A3046FCF7D6FE2A200399215429B05E
:10519000F0BDC046041800203C1B0020B81C0020B5
:1051A000F0B581B00C468121490088423ADDFF21EB
:1051B0000A46043290425ED0063188426BD0832189
:1051C0004900884200D0A3E2207BA568012800DCCA
:1051D000C0E0022800D105E1032800D110E1042835
:1051E00000D095E228790F2800D92BE201218140D7
:1051F0001B20C002014200D124E220690021C171BC
:1052000044218171492141716E2101716521C17073
:105210006B2181706F21417054210170A069FC499C
:10522000A431AEE0FF22023290424AD0884200D040
:105230006EE2A5682879092800D167E22169091F73
:105240000522D141012900DDA5E0002900D134E18A
:10525000012900D048E10F2800D936E20121814020
:10526000FA4A114200D1C4E1E16828462530012202
:10527000FFF73EFEA0E1A0684521415C002900D176
:1052800086E00221217700790121A177F049794454
:10529000085C60773CE2A068007907284BDC0328B3
:1052A00000DD8AE0411E022900D2E3E0002800D19F
:1052B00032E1032800D03FE1E068E64979440F225B
:1052C00038E1A5680026E44F7F443868FFF782FB89
:1052D00001784278120251188278C0780002801852
:1052E0000004401821690A784B781B029A188B78C1
:1052F000C9780902C91809048918884209D03F1DD4
:10530000761C102EE1D3F0B2102800D100E22E79E5
:1053100000E02E71F0B2D149C140C90706D0FD4965
:105320007944085C6169814200D0F1E145200121A6
:1053300029542177ECE10B2846DC092800DD95E0B3
:10534000082800D1EDE0092800D0F5E0E068FD492B
:105350007944B0E0002868D0012800D0D8E128794D
:105360000F2800D96EE101218140EF4A114200D19E
:1053700092E12069EF4979440F2204F03BF9A069DA
:10538000691D6A4611604621EB4A7A44202357E1A1
:105390000320A077BCE1022900D19BE0032900D0C3
:1053A000A2E00A2800DC0AE101460B39022900D2FA
:1053B000FFE00F2800D1A2E1A8E105286CDC042859
:1053C00072D0052809D0B7E001460D39022904D36F
:1053D0000C2869D00F286BD0AEE0E068D74979443B
:1053E0000B22A7E02879072800DD81E0042800DDF2
:1053F000EEE0411E042900D20EE10028B9D021E1DF
:1054000028790F2800D92BE1012181401B22D202EB
:10541000114200D1A7E02069DF4979440D2204F050
:10542000E9F8A069FFF746FE0CE12069CE4979440E
:105430000E2204F0DFF8BD4E6336CC487844411CA0
:105440001422304604F0EAF8A56900285DD07820DF
:10545000687030202870B1480368A91CB14A3046F2
:10546000FCF788FD2A2000212954EBE00A281FD0F0
:105470000B2861D1E0680021C1717421817169211B
:105480004171732101716F21C1707021817065219B
:105490004170442101704FE0062847D007284BD1C6
:1054A000E068A74979443FE0E068AB49794440E0CF
:1054B000E068A74979440E223CE00F2800D925E195
:1054C000012181409A4A114200D116E1E168681D2C
:1054D000202219E1092863DC411E042900D28DE055
:1054E000082800D1C0E611E1002800D010E10DE14C
:1054F0000C2873DC01460B39022900D28CE0082805
:1055000000D136E70A286FD09CE0994979440A22F5
:10551000284604F06FF895E0E0688E497944092246
:1055200008E0E0688E497944072203E0E0688B498F
:105530007944102204F05EF865697C486330824942
:105540007944491C142204F069F8002802D08549E6
:10555000794401E07D4979440A22284604F04AF85A
:1055600001202077D4E021267201114252D0206917
:10557000884979440D2204F03DF8A5696748006820
:10558000FFF728FA0146E420634A105C022803D0A2
:105590004643634881196031284604F0E3F951E03D
:1055A00001460B39022929D301460E39022900D3BD
:1055B0008EE0E068FFF7D8FC45216854A6E001289A
:1055C00002D0082800D0A1E0E168253520229AE029
:1055D000811F022920D3052854D033E00D287AD02A
:1055E0000E284FD00F282DD12069654979440F220C
:1055F00058E00906890F01D1082866D1E068017FCB
:10560000427F837FC07FE870AB706A7029707DE055
:10561000401B0020082823D120695C4979440E22D0
:1056200003F0E8FFE878A9780902081869782A7871
:105630001202511809044318A0690A21544A7A44F5
:10564000FEF7F4FF20200121215461E026FC000038
:105650007251000060510000704B0000FEDD000040
:10566000401E0228EED2206947497944072203F000
:10567000C1FF287900220228104601D0253528468E
:10568000A16937E020693D4979440F2203F0B2FF58
:10569000A069FFF741FDD5E7002821D120693549F0
:1056A0007944112203F0A6FFA6697820707030209B
:1056B00030701A4803682535B11C1A4A2846FCF791
:1056C00059FC2A2000213154BCE700281ED1FDE6F8
:1056D0000A2814D01AE020692A4979440F229EE64C
:1056E000206925497944072203F084FFA169253503
:1056F00001222846FFF778FCA4E7002806D1E168DC
:1057000025350C311422284603F078FF012020753E
:1057100001B0F0BDD0500000401B00203C1B002019
:1057200004180020B81C0020FEFE0000DC18002039
:10573000FEFD0000225100006D4800005E50000098
:10574000344F000008510000834E0000224F00003B
:10575000B44F0000F44E0000804F0000184F0000CE
:10576000B94E0000964E00005E490000874F0000D1
:105770006C4F0000E44D0000A4450000304E0000D6
:10578000CC4E0000EE4D00001E4600008C4E000086
:10579000B04B0000664F00008249000001DF7047F7
:1057A00080B584B00190034801A9FFF7F7FF04B06A
:1057B00080BDC0463701006080B582B002486946AE
:1057C000FFF7ECFF02B080BD3C02006080B586B000
:1057D000019002910392034801A9FFF7DFFF06B091
:1057E00080BDC0467F03006080B584B00090019109
:1057F00003486946FFF7D2FF019804B080BDC04658
:105800002C05006080B588B000900191029203934E
:105810000A9804900B98059003486946FFF7BEFF6D
:10582000019808B080BDC0463B07006080B584B0D9
:105830000190034801A9FFF7B1FF029804B080BDB1
:10584000DB0A006080B586B000900191029203935C
:1058500003486946FFF7A2FF019806B080BDC04625
:105860002C0B006080B584B000900191034869461C
:10587000FFF794FF019804B080BDC046CF100060D0
:1058800080B588B001900291039204930A98059024
:10589000034801A9FFF782FF029808B080BDC04607
:1058A000172B006080B588B0019002910392049399
:1058B0000A980590034801A9FFF770FF029808B005
:1058C00080BDC046F32C006080B586B00090019189
:1058D0000292039303486946FFF760FF019806B000
:1058E00080BDC046ED2D006080B586B0009001916E
:1058F0000292039303486946FFF750FF019806B0F0
:1059000080BDC046EA2E006080B586B0009001914F
:105910000292039303486946FFF740FF019806B0DF
:1059200080BDC0462E2F006080B58AB000900191E6
:10593000029203930C9804900D9805900E9806908F
:105940000F98079003486946FFF728FF01980AB0AF
:1059500080BDC046F338006080B58AB001900291E6
:10596000039204930C9805900D9806900E9807905A
:10597000034801A9FFF712FF02980AB080BDC04694
:10598000F139006080B586B001900291039204481D
:1059900001A9FFF703FF029880B206B080BDC046A0
:1059A0006E92006080B586B0019002910392034828
:1059B00001A9FFF7F3FE029806B080BD5B3D0060D1
:1059C00080B586B000900191029203930248694627
:1059D000FFF7E4FE06B080BD3E41006080B586B0B2
:1059E000009001910292039302486946FFF7D6FEA8
:1059F00006B080BD4546006080B582B00348694668
:105A0000FFF7CCFE0198C0B202B080BD4F9F00608E
:105A100080B588B001900291039204930A98059092
:105A2000024801A9FFF7BAFE08B080BDBA53006072
:105A300080B584B00090019103486946FFF7AEFE3F
:105A4000019804B080BDC046FCA8006080B582B05B
:105A500003486946FFF7A2FE0198C0B202B080BDBC
:105A60003CA0006080B584B00190034801A9FFF715
:105A700095FE029804B080BD5864006080B584B083
:105A80000190034801A9FFF789FE04B080BDC0461C
:105A90000D67006080B582B002486946FFF77EFE60
:105AA00002B080BD8D68006080B582B00348694651
:105AB000FFF774FE019802B080BDC0466E6A0060B8
:105AC00080B586B0019002910392034801A9FFF7C7
:105AD00065FE029806B080BDD474006080B584B0C5
